{
  "contractName": "BidGame",
  "abi": [
    {
      "inputs": [
        {
          "internalType": "address",
          "name": "_gameRegistry",
          "type": "address"
        },
        {
          "internalType": "address",
          "name": "_dreamBidFeeAddress",
          "type": "address"
        }
      ],
      "stateMutability": "nonpayable",
      "type": "constructor"
    },
    {
      "anonymous": false,
      "inputs": [
        {
          "indexed": false,
          "internalType": "uint256",
          "name": "GameId",
          "type": "uint256"
        },
        {
          "indexed": false,
          "internalType": "uint8",
          "name": "CompetitorIndex",
          "type": "uint8"
        },
        {
          "indexed": false,
          "internalType": "address",
          "name": "Currency",
          "type": "address"
        },
        {
          "indexed": false,
          "internalType": "uint256",
          "name": "Amount",
          "type": "uint256"
        },
        {
          "indexed": false,
          "internalType": "uint256",
          "name": "totalBid",
          "type": "uint256"
        }
      ],
      "name": "BidCreated",
      "type": "event"
    },
    {
      "anonymous": false,
      "inputs": [
        {
          "indexed": false,
          "internalType": "uint256",
          "name": "GameId",
          "type": "uint256"
        },
        {
          "indexed": false,
          "internalType": "uint256",
          "name": "Amount",
          "type": "uint256"
        }
      ],
      "name": "wihdrawSuccess",
      "type": "event"
    },
    {
      "inputs": [
        {
          "internalType": "uint256",
          "name": "",
          "type": "uint256"
        },
        {
          "internalType": "uint256",
          "name": "",
          "type": "uint256"
        }
      ],
      "name": "Bidders",
      "outputs": [
        {
          "internalType": "address",
          "name": "",
          "type": "address"
        }
      ],
      "stateMutability": "view",
      "type": "function",
      "constant": true
    },
    {
      "inputs": [
        {
          "internalType": "uint256",
          "name": "",
          "type": "uint256"
        },
        {
          "internalType": "uint8",
          "name": "",
          "type": "uint8"
        },
        {
          "internalType": "uint256",
          "name": "",
          "type": "uint256"
        }
      ],
      "name": "Bids",
      "outputs": [
        {
          "internalType": "address",
          "name": "currency",
          "type": "address"
        },
        {
          "internalType": "address",
          "name": "userAddress",
          "type": "address"
        },
        {
          "internalType": "uint256",
          "name": "BidAmount",
          "type": "uint256"
        },
        {
          "internalType": "bool",
          "name": "withdrawn",
          "type": "bool"
        }
      ],
      "stateMutability": "view",
      "type": "function",
      "constant": true
    },
    {
      "inputs": [
        {
          "internalType": "uint256",
          "name": "",
          "type": "uint256"
        },
        {
          "internalType": "uint256",
          "name": "",
          "type": "uint256"
        }
      ],
      "name": "Competitors",
      "outputs": [
        {
          "internalType": "string",
          "name": "competitor",
          "type": "string"
        }
      ],
      "stateMutability": "view",
      "type": "function",
      "constant": true
    },
    {
      "inputs": [],
      "name": "_restrictionOnGame",
      "outputs": [
        {
          "internalType": "bool",
          "name": "",
          "type": "bool"
        }
      ],
      "stateMutability": "view",
      "type": "function",
      "constant": true
    },
    {
      "inputs": [
        {
          "internalType": "uint256",
          "name": "",
          "type": "uint256"
        },
        {
          "internalType": "address",
          "name": "",
          "type": "address"
        }
      ],
      "name": "bidderAddressIndex",
      "outputs": [
        {
          "internalType": "uint256",
          "name": "",
          "type": "uint256"
        }
      ],
      "stateMutability": "view",
      "type": "function",
      "constant": true
    },
    {
      "inputs": [],
      "name": "dreamBidFeeAddress",
      "outputs": [
        {
          "internalType": "address",
          "name": "",
          "type": "address"
        }
      ],
      "stateMutability": "view",
      "type": "function",
      "constant": true
    },
    {
      "inputs": [],
      "name": "gameId",
      "outputs": [
        {
          "internalType": "uint256",
          "name": "",
          "type": "uint256"
        }
      ],
      "stateMutability": "view",
      "type": "function",
      "constant": true
    },
    {
      "inputs": [],
      "name": "gameRegistryAddress",
      "outputs": [
        {
          "internalType": "address",
          "name": "",
          "type": "address"
        }
      ],
      "stateMutability": "view",
      "type": "function",
      "constant": true
    },
    {
      "inputs": [
        {
          "internalType": "uint256",
          "name": "",
          "type": "uint256"
        }
      ],
      "name": "gamesDetail",
      "outputs": [
        {
          "internalType": "address",
          "name": "currency",
          "type": "address"
        },
        {
          "internalType": "address",
          "name": "gameOwner",
          "type": "address"
        },
        {
          "internalType": "uint256",
          "name": "gameCreationTime",
          "type": "uint256"
        },
        {
          "internalType": "uint256",
          "name": "price",
          "type": "uint256"
        },
        {
          "internalType": "bool",
          "name": "addBidders",
          "type": "bool"
        },
        {
          "internalType": "uint256",
          "name": "bidStartTime",
          "type": "uint256"
        },
        {
          "internalType": "uint256",
          "name": "bidEndTime",
          "type": "uint256"
        },
        {
          "internalType": "bool",
          "name": "winnerDecided",
          "type": "bool"
        },
        {
          "internalType": "enum gameStorage.gameState",
          "name": "state",
          "type": "uint8"
        }
      ],
      "stateMutability": "view",
      "type": "function",
      "constant": true
    },
    {
      "inputs": [
        {
          "internalType": "uint256",
          "name": "",
          "type": "uint256"
        },
        {
          "internalType": "uint8",
          "name": "",
          "type": "uint8"
        }
      ],
      "name": "totalBidAmount",
      "outputs": [
        {
          "internalType": "uint256",
          "name": "",
          "type": "uint256"
        }
      ],
      "stateMutability": "view",
      "type": "function",
      "constant": true
    },
    {
      "inputs": [
        {
          "internalType": "address",
          "name": "",
          "type": "address"
        },
        {
          "internalType": "uint256",
          "name": "",
          "type": "uint256"
        }
      ],
      "name": "userBidIndex",
      "outputs": [
        {
          "internalType": "uint256",
          "name": "",
          "type": "uint256"
        }
      ],
      "stateMutability": "view",
      "type": "function",
      "constant": true
    },
    {
      "inputs": [
        {
          "internalType": "bool",
          "name": "_restriction",
          "type": "bool"
        }
      ],
      "name": "restrictionOnGame",
      "outputs": [],
      "stateMutability": "nonpayable",
      "type": "function"
    },
    {
      "inputs": [
        {
          "internalType": "uint256",
          "name": "_gameId",
          "type": "uint256"
        },
        {
          "internalType": "uint8",
          "name": "_competitorIndex",
          "type": "uint8"
        },
        {
          "internalType": "uint256",
          "name": "_amount",
          "type": "uint256"
        }
      ],
      "name": "Bid",
      "outputs": [],
      "stateMutability": "payable",
      "type": "function",
      "payable": true
    },
    {
      "inputs": [
        {
          "internalType": "uint256",
          "name": "_gameId",
          "type": "uint256"
        },
        {
          "internalType": "uint8",
          "name": "_competitorsLimit",
          "type": "uint8"
        },
        {
          "internalType": "uint256",
          "name": "_winnersLength",
          "type": "uint256"
        },
        {
          "internalType": "uint8[]",
          "name": "_winners",
          "type": "uint8[]"
        }
      ],
      "name": "losingCompetitorsAmount",
      "outputs": [
        {
          "internalType": "uint256",
          "name": "",
          "type": "uint256"
        }
      ],
      "stateMutability": "view",
      "type": "function",
      "constant": true
    },
    {
      "inputs": [
        {
          "internalType": "uint256",
          "name": "_gameId",
          "type": "uint256"
        },
        {
          "internalType": "uint8",
          "name": "_competitorIndex",
          "type": "uint8"
        }
      ],
      "name": "getTotalBidAmount",
      "outputs": [
        {
          "internalType": "uint256",
          "name": "",
          "type": "uint256"
        }
      ],
      "stateMutability": "view",
      "type": "function",
      "constant": true
    },
    {
      "inputs": [
        {
          "internalType": "uint256",
          "name": "_gameId",
          "type": "uint256"
        },
        {
          "internalType": "uint8",
          "name": "_competitorIndex",
          "type": "uint8"
        },
        {
          "internalType": "address",
          "name": "_ERC20Address",
          "type": "address"
        },
        {
          "internalType": "address",
          "name": "_receiver",
          "type": "address"
        }
      ],
      "name": "withdraw",
      "outputs": [],
      "stateMutability": "nonpayable",
      "type": "function"
    },
    {
      "inputs": [
        {
          "internalType": "uint256",
          "name": "_gameId",
          "type": "uint256"
        },
        {
          "internalType": "uint8",
          "name": "_competitorIndex",
          "type": "uint8"
        }
      ],
      "name": "getGameBidAmount",
      "outputs": [
        {
          "internalType": "uint256",
          "name": "",
          "type": "uint256"
        }
      ],
      "stateMutability": "view",
      "type": "function",
      "constant": true
    },
    {
      "inputs": [],
      "name": "getContractbalance",
      "outputs": [
        {
          "internalType": "uint256",
          "name": "",
          "type": "uint256"
        }
      ],
      "stateMutability": "view",
      "type": "function",
      "constant": true
    },
    {
      "inputs": [],
      "name": "_getContractbalance",
      "outputs": [
        {
          "internalType": "uint256",
          "name": "",
          "type": "uint256"
        }
      ],
      "stateMutability": "view",
      "type": "function",
      "constant": true
    }
  ],
  "bytecode": "0x60806040523480156200001157600080fd5b5060405162002c7638038062002c76833981810160405281019062000037919062000133565b600160068190555081600760006101000a81548173ffffffffffffffffffffffffffffffffffffffff021916908373ffffffffffffffffffffffffffffffffffffffff16021790555080600860006101000a81548173ffffffffffffffffffffffffffffffffffffffff021916908373ffffffffffffffffffffffffffffffffffffffff16021790555050506200017a565b600080fd5b600073ffffffffffffffffffffffffffffffffffffffff82169050919050565b6000620000fb82620000ce565b9050919050565b6200010d81620000ee565b81146200011957600080fd5b50565b6000815190506200012d8162000102565b92915050565b600080604083850312156200014d576200014c620000c9565b5b60006200015d858286016200011c565b925050602062000170858286016200011c565b9150509250929050565b612aec806200018a6000396000f3fe6080604052600436106101145760003560e01c8063766fb2b6116100a0578063c909809311610064578063c9098093146103eb578063d001242914610428578063d09cf8fc14610465578063d7c81b551461048e578063ec09376d146104b957610114565b8063766fb2b6146102d65780637a227918146103015780639904eacf14610346578063a426ac1c14610383578063b9863604146103ae57610114565b80633ff5b1d4116100e75780633ff5b1d4146101d557806340f1df1b1461021257806352e9bb64146102525780635b60c9891461027d57806360d59436146102ba57610114565b806307597c1c14610119578063143304b9146101565780632e08793d1461017f57806334097bc0146101aa575b600080fd5b34801561012557600080fd5b50610140600480360381019061013b919061198e565b6104f6565b60405161014d9190611a5e565b60405180910390f35b34801561016257600080fd5b5061017d60048036038101906101789190611b17565b6105b5565b005b34801561018b57600080fd5b50610194610cb9565b6040516101a19190611b8d565b60405180910390f35b3480156101b657600080fd5b506101bf610cdf565b6040516101cc9190611bb7565b60405180910390f35b3480156101e157600080fd5b506101fc60048036038101906101f79190611bd2565b610ce7565b6040516102099190611bb7565b60405180910390f35b34801561021e57600080fd5b5061023960048036038101906102349190611c12565b610d1c565b6040516102499493929190611c80565b60405180910390f35b34801561025e57600080fd5b50610267610dc3565b6040516102749190611b8d565b60405180910390f35b34801561028957600080fd5b506102a4600480360381019061029f919061198e565b610de9565b6040516102b19190611b8d565b60405180910390f35b6102d460048036038101906102cf9190611c12565b610e37565b005b3480156102e257600080fd5b506102eb61153c565b6040516102f89190611bb7565b60405180910390f35b34801561030d57600080fd5b5061032860048036038101906103239190611cc5565b611595565b60405161033d99989796959493929190611d69565b60405180910390f35b34801561035257600080fd5b5061036d60048036038101906103689190611bd2565b61164a565b60405161037a9190611bb7565b60405180910390f35b34801561038f57600080fd5b5061039861166f565b6040516103a59190611df6565b60405180910390f35b3480156103ba57600080fd5b506103d560048036038101906103d09190611f59565b611682565b6040516103e29190611bb7565b60405180910390f35b3480156103f757600080fd5b50610412600480360381019061040d9190611bd2565b61173b565b60405161041f9190611bb7565b60405180910390f35b34801561043457600080fd5b5061044f600480360381019061044a9190611fdc565b611770565b60405161045c9190611bb7565b60405180910390f35b34801561047157600080fd5b5061048c60048036038101906104879190612048565b611795565b005b34801561049a57600080fd5b506104a36118c0565b6040516104b09190611bb7565b60405180910390f35b3480156104c557600080fd5b506104e060048036038101906104db9190612075565b6118c6565b6040516104ed9190611bb7565b60405180910390f35b6004602052816000526040600020818154811061051257600080fd5b9060005260206000200160009150915050806000018054610532906120e4565b80601f016020809104026020016040519081016040528092919081815260200182805461055e906120e4565b80156105ab5780601f10610580576101008083540402835291602001916105ab565b820191906000526020600020905b81548152906001019060200180831161058e57829003601f168201915b5050505050905081565b6105bd6118eb565b6000600760009054906101000a900473ffffffffffffffffffffffffffffffffffffffff1673ffffffffffffffffffffffffffffffffffffffff1663805f39f0866040518263ffffffff1660e01b815260040161061a9190611bb7565b61012060405180830381865afa158015610638573d6000803e3d6000fd5b505050506040513d601f19601f8201168201806040525081019061065c919061225e565b90508060e001516106ae578060c0015142116106ad576040517f08c379a00000000000000000000000000000000000000000000000000000000081526004016106a4906122d8565b60405180910390fd5b5b6000600b60003373ffffffffffffffffffffffffffffffffffffffff1673ffffffffffffffffffffffffffffffffffffffff168152602001908152602001600020600087815260200190815260200160002054905060008111610746576040517f08c379a000000000000000000000000000000000000000000000000000000000815260040161073d90612344565b60405180910390fd5b600a600087815260200190815260200160002060008660ff1660ff16815260200190815260200160002060018261077d9190612393565b8154811061078e5761078d6123c7565b5b906000526020600020906004020160030160009054906101000a900460ff16156107ed576040517f08c379a00000000000000000000000000000000000000000000000000000000081526004016107e490612442565b60405180910390fd5b6001600a600088815260200190815260200160002060008760ff1660ff1681526020019081526020016000206001836108269190612393565b81548110610837576108366123c7565b5b906000526020600020906004020160030160006101000a81548160ff0219169083151502179055506000600760009054906101000a900473ffffffffffffffffffffffffffffffffffffffff1673ffffffffffffffffffffffffffffffffffffffff1663a3033a186040518163ffffffff1660e01b8152600401602060405180830381865afa1580156108ce573d6000803e3d6000fd5b505050506040513d601f19601f820116820180604052508101906108f29190612477565b90506000600760009054906101000a900473ffffffffffffffffffffffffffffffffffffffff1673ffffffffffffffffffffffffffffffffffffffff166386f1a371896040518263ffffffff1660e01b81526004016109519190611bb7565b602060405180830381865afa15801561096e573d6000803e3d6000fd5b505050506040513d601f19601f8201168201806040525081019061099291906124a4565b90506000600760009054906101000a900473ffffffffffffffffffffffffffffffffffffffff1673ffffffffffffffffffffffffffffffffffffffff16636b1426a48a6040518263ffffffff1660e01b81526004016109f19190611bb7565b600060405180830381865afa158015610a0e573d6000803e3d6000fd5b505050506040513d6000823e3d601f19601f82011682018060405250810190610a379190612568565b90506000610a478a858585611682565b90506000600b60003373ffffffffffffffffffffffffffffffffffffffff1673ffffffffffffffffffffffffffffffffffffffff16815260200190815260200160002060008c81526020019081526020016000205490506000600a60008d815260200190815260200160002060008c60ff1660ff168152602001908152602001600020600183610ad79190612393565b81548110610ae857610ae76123c7565b5b90600052602060002090600402016002015490506000600960008e815260200190815260200160002060008d60ff1660ff168152602001908152602001600020549050600073__LibCalculations_______________________637754723e8684866040518463ffffffff1660e01b8152600401610b68939291906125c0565b602060405180830381865af4158015610b85573d6000803e3d6000fd5b505050506040513d601f19601f82011682018060405250810190610ba991906124a4565b90508b73ffffffffffffffffffffffffffffffffffffffff1663a9059cbb8c836040518363ffffffff1660e01b8152600401610be69291906125f7565b6020604051808303816000875af1158015610c05573d6000803e3d6000fd5b505050506040513d601f19601f82011682018060405250810190610c299190612620565b610c68576040517f08c379a0000000000000000000000000000000000000000000000000000000008152600401610c5f90612699565b60405180910390fd5b7f18e285ddb8b3a9ee1be4114eaf7c17b48058cce148f96fd250c8fd08580d73dd8e82604051610c999291906126b9565b60405180910390a150505050505050505050610cb361193a565b50505050565b600760009054906101000a900473ffffffffffffffffffffffffffffffffffffffff1681565b600047905090565b60006009600084815260200190815260200160002060008360ff1660ff16815260200190815260200160002054905092915050565b600a6020528260005260406000206020528160005260406000208181548110610d4457600080fd5b906000526020600020906004020160009250925050508060000160009054906101000a900473ffffffffffffffffffffffffffffffffffffffff16908060010160009054906101000a900473ffffffffffffffffffffffffffffffffffffffff16908060020154908060030160009054906101000a900460ff16905084565b600860009054906101000a900473ffffffffffffffffffffffffffffffffffffffff1681565b60026020528160005260406000208181548110610e0557600080fd5b906000526020600020016000915091509054906101000a900473ffffffffffffffffffffffffffffffffffffffff1681565b610e3f6118eb565b6000600760009054906101000a900473ffffffffffffffffffffffffffffffffffffffff1673ffffffffffffffffffffffffffffffffffffffff1663805f39f0856040518263ffffffff1660e01b8152600401610e9c9190611bb7565b61012060405180830381865afa158015610eba573d6000803e3d6000fd5b505050506040513d601f19601f82011682018060405250810190610ede919061225e565b9050806080015115610fc857600760009054906101000a900473ffffffffffffffffffffffffffffffffffffffff1673ffffffffffffffffffffffffffffffffffffffff166327bb655385336040518363ffffffff1660e01b8152600401610f479291906126e2565b602060405180830381865afa158015610f64573d6000803e3d6000fd5b505050506040513d601f19601f82011682018060405250810190610f889190612620565b610fc7576040517f08c379a0000000000000000000000000000000000000000000000000000000008152600401610fbe90612757565b60405180910390fd5b5b600073ffffffffffffffffffffffffffffffffffffffff16816000015173ffffffffffffffffffffffffffffffffffffffff1603611004573491505b8060a00151421161104a576040517f08c379a0000000000000000000000000000000000000000000000000000000008152600401611041906127c3565b60405180910390fd5b6000600b60003373ffffffffffffffffffffffffffffffffffffffff1673ffffffffffffffffffffffffffffffffffffffff16815260200190815260200160002060008681526020019081526020016000205490506000600a600087815260200190815260200160002060008660ff1660ff168152602001908152602001600020805490501180156110dc5750600081115b156111565782600a600087815260200190815260200160002060008660ff1660ff1681526020019081526020016000206001836111199190612393565b8154811061112a576111296123c7565b5b9060005260206000209060040201600201600082825461114a91906127e3565b925050819055506112be565b60006040518060800160405280846000015173ffffffffffffffffffffffffffffffffffffffff1681526020013373ffffffffffffffffffffffffffffffffffffffff168152602001858152602001600015158152509050600a600087815260200190815260200160002060008660ff1660ff16815260200190815260200160002081908060018154018082558091505060019003906000526020600020906004020160009091909190915060008201518160000160006101000a81548173ffffffffffffffffffffffffffffffffffffffff021916908373ffffffffffffffffffffffffffffffffffffffff16021790555060208201518160010160006101000a81548173ffffffffffffffffffffffffffffffffffffffff021916908373ffffffffffffffffffffffffffffffffffffffff1602179055506040820151816002015560608201518160030160006101000a81548160ff0219169083151502179055505050505b600a600086815260200190815260200160002060008560ff1660ff16815260200190815260200160002080549050600b60003373ffffffffffffffffffffffffffffffffffffffff1673ffffffffffffffffffffffffffffffffffffffff168152602001908152602001600020600087815260200190815260200160002081905550826009600087815260200190815260200160002060008660ff1660ff168152602001908152602001600020600082825461137a91906127e3565b92505081905550600073ffffffffffffffffffffffffffffffffffffffff16826000015173ffffffffffffffffffffffffffffffffffffffff16146114c057600083036113fc576040517f08c379a00000000000000000000000000000000000000000000000000000000081526004016113f390612863565b60405180910390fd5b816000015173ffffffffffffffffffffffffffffffffffffffff166323b872dd3330866040518463ffffffff1660e01b815260040161143d93929190612883565b6020604051808303816000875af115801561145c573d6000803e3d6000fd5b505050506040513d601f19601f820116820180604052508101906114809190612620565b6114bf576040517f08c379a00000000000000000000000000000000000000000000000000000000081526004016114b690612906565b60405180910390fd5b5b7f3346ca5ba628b4e9aa27f071af05c2a7f4221d058615fd6592aec7492fbb06408585846000015186600960008b815260200190815260200160002060008a60ff1660ff16815260200190815260200160002054604051611525959493929190612935565b60405180910390a1505061153761193a565b505050565b6000600b60003373ffffffffffffffffffffffffffffffffffffffff1673ffffffffffffffffffffffffffffffffffffffff16815260200190815260200160002060006001815260200190815260200160002054905090565b60016020528060005260406000206000915090508060000160009054906101000a900473ffffffffffffffffffffffffffffffffffffffff16908060010160009054906101000a900473ffffffffffffffffffffffffffffffffffffffff16908060020154908060030154908060040160009054906101000a900460ff16908060050154908060060154908060070160009054906101000a900460ff16908060070160019054906101000a900460ff16905089565b6009602052816000526040600020602052806000526040600020600091509150505481565b600860149054906101000a900460ff1681565b60008060005b8560ff168160ff16101561172e5760005b858160ff16101561171a57848160ff16815181106116ba576116b96123c7565b5b602002602001015160ff168260ff1614611707576009600089815260200190815260200160002060008360ff1660ff168152602001908152602001600020548361170491906127e3565b92505b808061171290612988565b915050611699565b50808061172690612988565b915050611688565b5080915050949350505050565b60006009600084815260200190815260200160002060008360ff1660ff16815260200190815260200160002054905092915050565b600b602052816000526040600020602052806000526040600020600091509150505481565b61179d6118eb565b600860009054906101000a900473ffffffffffffffffffffffffffffffffffffffff1673ffffffffffffffffffffffffffffffffffffffff16633c453a676040518163ffffffff1660e01b8152600401602060405180830381865afa15801561180a573d6000803e3d6000fd5b505050506040513d601f19601f8201168201806040525081019061182e91906129b1565b73ffffffffffffffffffffffffffffffffffffffff163373ffffffffffffffffffffffffffffffffffffffff161461189b576040517f08c379a000000000000000000000000000000000000000000000000000000000815260040161189290612a2a565b60405180910390fd5b80600860146101000a81548160ff0219169083151502179055506118bd61193a565b50565b60005481565b6003602052816000526040600020602052806000526040600020600091509150505481565b600260065403611930576040517f08c379a000000000000000000000000000000000000000000000000000000000815260040161192790612a96565b60405180910390fd5b6002600681905550565b6001600681905550565b6000604051905090565b600080fd5b600080fd5b6000819050919050565b61196b81611958565b811461197657600080fd5b50565b60008135905061198881611962565b92915050565b600080604083850312156119a5576119a461194e565b5b60006119b385828601611979565b92505060206119c485828601611979565b9150509250929050565b600081519050919050565b600082825260208201905092915050565b60005b83811015611a085780820151818401526020810190506119ed565b60008484015250505050565b6000601f19601f8301169050919050565b6000611a30826119ce565b611a3a81856119d9565b9350611a4a8185602086016119ea565b611a5381611a14565b840191505092915050565b60006020820190508181036000830152611a788184611a25565b905092915050565b600060ff82169050919050565b611a9681611a80565b8114611aa157600080fd5b50565b600081359050611ab381611a8d565b92915050565b600073ffffffffffffffffffffffffffffffffffffffff82169050919050565b6000611ae482611ab9565b9050919050565b611af481611ad9565b8114611aff57600080fd5b50565b600081359050611b1181611aeb565b92915050565b60008060008060808587031215611b3157611b3061194e565b5b6000611b3f87828801611979565b9450506020611b5087828801611aa4565b9350506040611b6187828801611b02565b9250506060611b7287828801611b02565b91505092959194509250565b611b8781611ad9565b82525050565b6000602082019050611ba26000830184611b7e565b92915050565b611bb181611958565b82525050565b6000602082019050611bcc6000830184611ba8565b92915050565b60008060408385031215611be957611be861194e565b5b6000611bf785828601611979565b9250506020611c0885828601611aa4565b9150509250929050565b600080600060608486031215611c2b57611c2a61194e565b5b6000611c3986828701611979565b9350506020611c4a86828701611aa4565b9250506040611c5b86828701611979565b9150509250925092565b60008115159050919050565b611c7a81611c65565b82525050565b6000608082019050611c956000830187611b7e565b611ca26020830186611b7e565b611caf6040830185611ba8565b611cbc6060830184611c71565b95945050505050565b600060208284031215611cdb57611cda61194e565b5b6000611ce984828501611979565b91505092915050565b7f4e487b7100000000000000000000000000000000000000000000000000000000600052602160045260246000fd5b60048110611d3257611d31611cf2565b5b50565b6000819050611d4382611d21565b919050565b6000611d5382611d35565b9050919050565b611d6381611d48565b82525050565b600061012082019050611d7f600083018c611b7e565b611d8c602083018b611b7e565b611d99604083018a611ba8565b611da66060830189611ba8565b611db36080830188611c71565b611dc060a0830187611ba8565b611dcd60c0830186611ba8565b611dda60e0830185611c71565b611de8610100830184611d5a565b9a9950505050505050505050565b6000602082019050611e0b6000830184611c71565b92915050565b600080fd5b7f4e487b7100000000000000000000000000000000000000000000000000000000600052604160045260246000fd5b611e4e82611a14565b810181811067ffffffffffffffff82111715611e6d57611e6c611e16565b5b80604052505050565b6000611e80611944565b9050611e8c8282611e45565b919050565b600067ffffffffffffffff821115611eac57611eab611e16565b5b602082029050602081019050919050565b600080fd5b6000611ed5611ed084611e91565b611e76565b90508083825260208201905060208402830185811115611ef857611ef7611ebd565b5b835b81811015611f215780611f0d8882611aa4565b845260208401935050602081019050611efa565b5050509392505050565b600082601f830112611f4057611f3f611e11565b5b8135611f50848260208601611ec2565b91505092915050565b60008060008060808587031215611f7357611f7261194e565b5b6000611f8187828801611979565b9450506020611f9287828801611aa4565b9350506040611fa387828801611979565b925050606085013567ffffffffffffffff811115611fc457611fc3611953565b5b611fd087828801611f2b565b91505092959194509250565b60008060408385031215611ff357611ff261194e565b5b600061200185828601611b02565b925050602061201285828601611979565b9150509250929050565b61202581611c65565b811461203057600080fd5b50565b6000813590506120428161201c565b92915050565b60006020828403121561205e5761205d61194e565b5b600061206c84828501612033565b91505092915050565b6000806040838503121561208c5761208b61194e565b5b600061209a85828601611979565b92505060206120ab85828601611b02565b9150509250929050565b7f4e487b7100000000000000000000000000000000000000000000000000000000600052602260045260246000fd5b600060028204905060018216806120fc57607f821691505b60208210810361210f5761210e6120b5565b5b50919050565b600080fd5b60008151905061212981611aeb565b92915050565b60008151905061213e81611962565b92915050565b6000815190506121538161201c565b92915050565b6004811061216657600080fd5b50565b60008151905061217881612159565b92915050565b6000610120828403121561219557612194612115565b5b6121a0610120611e76565b905060006121b08482850161211a565b60008301525060206121c48482850161211a565b60208301525060406121d88482850161212f565b60408301525060606121ec8482850161212f565b606083015250608061220084828501612144565b60808301525060a06122148482850161212f565b60a08301525060c06122288482850161212f565b60c08301525060e061223c84828501612144565b60e08301525061010061225184828501612169565b6101008301525092915050565b600061012082840312156122755761227461194e565b5b60006122838482850161217e565b91505092915050565b7f47616d65206e6f742046696e6973686564205965740000000000000000000000600082015250565b60006122c26015836119d9565b91506122cd8261228c565b602082019050919050565b600060208201905081810360008301526122f1816122b5565b9050919050565b7f596f752068617665206e6f742042696420696e20746869732067616d65000000600082015250565b600061232e601d836119d9565b9150612339826122f8565b602082019050919050565b6000602082019050818103600083015261235d81612321565b9050919050565b7f4e487b7100000000000000000000000000000000000000000000000000000000600052601160045260246000fd5b600061239e82611958565b91506123a983611958565b92508282039050818111156123c1576123c0612364565b5b92915050565b7f4e487b7100000000000000000000000000000000000000000000000000000000600052603260045260246000fd5b7f596f75206861766520616c72656164792077697468647261776e000000000000600082015250565b600061242c601a836119d9565b9150612437826123f6565b602082019050919050565b6000602082019050818103600083015261245b8161241f565b9050919050565b60008151905061247181611a8d565b92915050565b60006020828403121561248d5761248c61194e565b5b600061249b84828501612462565b91505092915050565b6000602082840312156124ba576124b961194e565b5b60006124c88482850161212f565b91505092915050565b60006124e46124df84611e91565b611e76565b9050808382526020820190506020840283018581111561250757612506611ebd565b5b835b81811015612530578061251c8882612462565b845260208401935050602081019050612509565b5050509392505050565b600082601f83011261254f5761254e611e11565b5b815161255f8482602086016124d1565b91505092915050565b60006020828403121561257e5761257d61194e565b5b600082015167ffffffffffffffff81111561259c5761259b611953565b5b6125a88482850161253a565b91505092915050565b6125ba81611958565b82525050565b60006060820190506125d560008301866125b1565b6125e260208301856125b1565b6125ef60408301846125b1565b949350505050565b600060408201905061260c6000830185611b7e565b6126196020830184611ba8565b9392505050565b6000602082840312156126365761263561194e565b5b600061264484828501612144565b91505092915050565b7f756e61626c6520746f207472616e7366657220746f2072656365697665720000600082015250565b6000612683601e836119d9565b915061268e8261264d565b602082019050919050565b600060208201905081810360008301526126b281612676565b9050919050565b60006040820190506126ce6000830185611ba8565b6126db6020830184611ba8565b9392505050565b60006040820190506126f76000830185611ba8565b6127046020830184611b7e565b9392505050565b7f596f7520617265206e6f74204164646564206173204269646465720000000000600082015250565b6000612741601b836119d9565b915061274c8261270b565b602082019050919050565b6000602082019050818103600083015261277081612734565b9050919050565b7f47616d65206e6f74205374617274656420596574000000000000000000000000600082015250565b60006127ad6014836119d9565b91506127b882612777565b602082019050919050565b600060208201905081810360008301526127dc816127a0565b9050919050565b60006127ee82611958565b91506127f983611958565b925082820190508082111561281157612810612364565b5b92915050565b7f596f752063616e2774204269642077697468207a65726f20616d6f756e740000600082015250565b600061284d601e836119d9565b915061285882612817565b602082019050919050565b6000602082019050818103600083015261287c81612840565b9050919050565b60006060820190506128986000830186611b7e565b6128a56020830185611b7e565b6128b26040830184611ba8565b949350505050565b7f556e61626c6520746f2074616e736665722046756e6400000000000000000000600082015250565b60006128f06016836119d9565b91506128fb826128ba565b602082019050919050565b6000602082019050818103600083015261291f816128e3565b9050919050565b61292f81611a80565b82525050565b600060a08201905061294a6000830188611ba8565b6129576020830187612926565b6129646040830186611b7e565b6129716060830185611ba8565b61297e6080830184611ba8565b9695505050505050565b600061299382611a80565b915060ff82036129a6576129a5612364565b5b600182019050919050565b6000602082840312156129c7576129c661194e565b5b60006129d58482850161211a565b91505092915050565b7f596f7520617265206e6f74207468652050726f746f636f6c204f776e65720000600082015250565b6000612a14601e836119d9565b9150612a1f826129de565b602082019050919050565b60006020820190508181036000830152612a4381612a07565b9050919050565b7f5265656e7472616e637947756172643a207265656e7472616e742063616c6c00600082015250565b6000612a80601f836119d9565b9150612a8b82612a4a565b602082019050919050565b60006020820190508181036000830152612aaf81612a73565b905091905056fea2646970667358221220e05b8d64b29b4ec4ed8708653625a1c79351998c14eda36888fa3c9d116501fb64736f6c63430008110033",
  "immutableReferences": {},
  "source": "// SPDX-License-Identifier: MIT\npragma solidity >=0.4.22 <0.9.0;\n\nimport \"@openzeppelin/contracts/utils/Counters.sol\";\nimport \"@openzeppelin/contracts/security/ReentrancyGuard.sol\";\nimport \"@openzeppelin/contracts/token/ERC20/IERC20.sol\";\n\nimport \"./gameStorage.sol\";\nimport \"./gameRegistry.sol\";\nimport \"./dreamBidFee.sol\";\nimport \"./Libraries/LibGame.sol\";\nimport \"./Libraries/LibCalculations.sol\";\n\ncontract BidGame is gameStorage, ReentrancyGuard {\n    address public gameRegistryAddress;\n    address public dreamBidFeeAddress;\n    bool public _restrictionOnGame;\n\n    // gameId => CompetitorIndex => totalBidAmount\n    mapping(uint256 => mapping(uint8 => uint256)) public totalBidAmount;\n\n    // gameId => competitorIndex => BidOrder[]\n    mapping(uint256 => mapping(uint8 => BidOrder[])) public Bids;\n    /*\n        BidIndex will always be plus one to actual Bid Index\n        because if user will again bid then his Bids[_gameId][_competitorIndex][bidIndex - 1].BidAmount will only change\n    */\n    // userAddress => gameId => BidIndex\n    mapping(address => mapping(uint256 => uint256)) public userBidIndex;\n\n    struct BidOrder {\n        address currency;\n        address userAddress;\n        uint256 BidAmount;\n        bool withdrawn;\n    }\n\n    constructor(address _gameRegistry, address _dreamBidFeeAddress) {\n        gameRegistryAddress = _gameRegistry;\n        dreamBidFeeAddress = _dreamBidFeeAddress;\n    }\n\n    event BidCreated(\n        uint256 GameId,\n        uint8 CompetitorIndex,\n        address Currency,\n        uint256 Amount,\n        uint256 totalBid\n    );\n\n    event wihdrawSuccess(\n        uint256 GameId,\n        uint256 Amount\n    );\n\n    function restrictionOnGame(bool _restriction) external nonReentrant {\n        require(\n            msg.sender ==\n                dreamBidFee(dreamBidFeeAddress).getProtocolOwnerAddress(),\n            \"You are not the Protocol Owner\"\n        );\n        _restrictionOnGame = _restriction;\n    }\n\n    function Bid(\n        uint256 _gameId,\n        uint8 _competitorIndex,\n        uint256 _amount\n    ) external payable nonReentrant {\n        gameDetail memory detail = gameRegistry(gameRegistryAddress)\n            .getGamedetail(_gameId);\n        if (detail.addBidders) {\n            require(\n                gameRegistry(gameRegistryAddress).bidderVerification(\n                    _gameId,\n                    msg.sender\n                ),\n                \"You are not Added as Bidder\"\n            );\n        }\n        if (detail.currency == address(0)) {\n            _amount = msg.value;\n        }\n\n        require(block.timestamp > detail.bidStartTime, \"Game not Started Yet\");\n        uint256 bidIndex = userBidIndex[msg.sender][_gameId];\n        if (Bids[_gameId][_competitorIndex].length > 0 && bidIndex > 0) {\n            Bids[_gameId][_competitorIndex][bidIndex - 1].BidAmount += _amount;\n        } else {\n            BidOrder memory bid = BidOrder(\n                detail.currency,\n                msg.sender,\n                _amount,\n                false\n            );\n            Bids[_gameId][_competitorIndex].push(bid);\n        }\n\n        userBidIndex[msg.sender][_gameId] = Bids[_gameId][_competitorIndex]\n            .length;\n        totalBidAmount[_gameId][_competitorIndex] += _amount;\n\n        if (detail.currency != address(0)) {\n            require(_amount != 0, \"You can't Bid with zero amount\");\n            require(\n                IERC20(detail.currency).transferFrom(\n                    msg.sender,\n                    address(this),\n                    _amount\n                ),\n                \"Unable to tansfer Fund\"\n            );\n        }\n\n        emit BidCreated(_gameId, _competitorIndex, detail.currency, _amount, totalBidAmount[_gameId][_competitorIndex]);\n    }\n\n    function losingCompetitorsAmount(uint256 _gameId, uint8 _competitorsLimit, uint256 _winnersLength, uint8[] memory _winners)\n        public\n        view\n        returns (uint256)\n    {\n        uint256 amount;\n        // gameRegistry(gameRegistryAddress).getWinners(_gameId);\n        for (uint8 i = 0; i < _competitorsLimit; i++) {\n            for (uint8 j = 0; j < _winnersLength; j++) {\n                if (i != _winners[j]) {\n                    amount += totalBidAmount[_gameId][i];\n                }\n            }\n        }\n        return amount;\n    }\n\n    function getTotalBidAmount(uint256 _gameId, uint8 _competitorIndex) public view returns(uint256){\n        return totalBidAmount[_gameId][_competitorIndex];\n    }\n\n    function withdraw(\n        uint256 _gameId,\n        uint8 _competitorIndex,\n        address _ERC20Address,\n        address _receiver\n    ) external nonReentrant {\n        gameDetail memory detail = gameRegistry(gameRegistryAddress)\n            .getGamedetail(_gameId);\n        if(!detail.winnerDecided){\n            require(block.timestamp > detail.bidEndTime, \"Game not Finished Yet\");\n        }\n        uint256 index = userBidIndex[msg.sender][_gameId];\n        require(index > 0, \"You have not Bid in this game\");\n        require(\n            !Bids[_gameId][_competitorIndex][index - 1].withdrawn,\n            \"You have already withdrawn\"\n        );\n        Bids[_gameId][_competitorIndex][index - 1].withdrawn = true;\n        uint8 CompetitorsLimit = gameRegistry(gameRegistryAddress)\n            .getCompetitorsLimit();\n        uint256 WinnersLength = gameRegistry(gameRegistryAddress)\n            .getWinnersLength(_gameId);\n        uint8[] memory winners = gameRegistry(gameRegistryAddress)\n            .getWinners(_gameId);\n        uint256 _losingCompetitorsAmount = losingCompetitorsAmount(_gameId, CompetitorsLimit, WinnersLength, winners);\n        uint256 bidIndex = userBidIndex[msg.sender][_gameId];\n        uint256 userAmount = Bids[_gameId][_competitorIndex][bidIndex - 1].BidAmount;\n        uint256 winningAmount = totalBidAmount[_gameId][_competitorIndex];\n        uint256 payout = LibCalculations.calculateAmount(_losingCompetitorsAmount, winningAmount, userAmount);\n        // transfering Amount to Winner\n        require(\n            IERC20(_ERC20Address).transfer(_receiver, payout),\n            \"unable to transfer to receiver\"\n        );\n        emit wihdrawSuccess(_gameId, payout);\n    }\n\n    function getGameBidAmount(uint256 _gameId, uint8 _competitorIndex)\n        external\n        view\n        returns (uint256)\n    {\n        return totalBidAmount[_gameId][_competitorIndex];\n    }\n\n    function getContractbalance() public view returns (uint256) {\n        return address(this).balance;\n    }\n\n    function _getContractbalance() public view returns (uint256) {\n        return userBidIndex[msg.sender][1];\n    }\n}\n",
  "sourcePath": "/media/dell/17f09f70-0626-4927-a787-2813ab7ed2c0/dell/Dream Bid/Dream-Bid/contracts/BidGame.sol",
  "compiler": {
    "name": "solc",
    "version": "0.8.17+commit.8df45f5f.Emscripten.clang"
  },
  "schemaVersion": "3.4.10",
  "updatedAt": "2023-05-04T04:58:40.679Z",
  "networkType": "ethereum",
  "devdoc": {
    "kind": "dev",
    "methods": {},
    "version": 1
  },
  "userdoc": {
    "kind": "user",
    "methods": {},
    "version": 1
  }
}