{
  "contractName": "dreamBidFee",
  "abi": [
    {
      "anonymous": false,
      "inputs": [
        {
          "indexed": false,
          "internalType": "uint16",
          "name": "newFee",
          "type": "uint16"
        },
        {
          "indexed": false,
          "internalType": "uint16",
          "name": "oldFee",
          "type": "uint16"
        }
      ],
      "name": "FeeSet",
      "type": "event"
    },
    {
      "anonymous": false,
      "inputs": [
        {
          "indexed": true,
          "internalType": "address",
          "name": "previousOwner",
          "type": "address"
        },
        {
          "indexed": true,
          "internalType": "address",
          "name": "newOwner",
          "type": "address"
        }
      ],
      "name": "OwnershipTransferred",
      "type": "event"
    },
    {
      "inputs": [],
      "name": "_dreamBiddingFee",
      "outputs": [
        {
          "internalType": "uint16",
          "name": "",
          "type": "uint16"
        }
      ],
      "stateMutability": "view",
      "type": "function",
      "constant": true
    },
    {
      "inputs": [],
      "name": "owner",
      "outputs": [
        {
          "internalType": "address",
          "name": "",
          "type": "address"
        }
      ],
      "stateMutability": "view",
      "type": "function",
      "constant": true
    },
    {
      "inputs": [],
      "name": "renounceOwnership",
      "outputs": [],
      "stateMutability": "nonpayable",
      "type": "function"
    },
    {
      "inputs": [
        {
          "internalType": "address",
          "name": "newOwner",
          "type": "address"
        }
      ],
      "name": "transferOwnership",
      "outputs": [],
      "stateMutability": "nonpayable",
      "type": "function"
    },
    {
      "inputs": [],
      "name": "protocolFee",
      "outputs": [
        {
          "internalType": "uint16",
          "name": "",
          "type": "uint16"
        }
      ],
      "stateMutability": "view",
      "type": "function",
      "constant": true
    },
    {
      "inputs": [],
      "name": "getProtocolOwnerAddress",
      "outputs": [
        {
          "internalType": "address",
          "name": "",
          "type": "address"
        }
      ],
      "stateMutability": "view",
      "type": "function",
      "constant": true
    },
    {
      "inputs": [
        {
          "internalType": "uint16",
          "name": "newFee",
          "type": "uint16"
        }
      ],
      "name": "setProtocolFee",
      "outputs": [],
      "stateMutability": "nonpayable",
      "type": "function"
    }
  ],
  "bytecode": "0x608060405234801561001057600080fd5b5061002d61002261003260201b60201c565b61003a60201b60201c565b6100fe565b600033905090565b60008060009054906101000a900473ffffffffffffffffffffffffffffffffffffffff169050816000806101000a81548173ffffffffffffffffffffffffffffffffffffffff021916908373ffffffffffffffffffffffffffffffffffffffff1602179055508173ffffffffffffffffffffffffffffffffffffffff168173ffffffffffffffffffffffffffffffffffffffff167f8be0079c531659141344cd1fd0a4f28419497f9722a3daafe3b4186f6b6457e060405160405180910390a35050565b6106d08061010d6000396000f3fe608060405234801561001057600080fd5b506004361061007d5760003560e01c80639c37cd7b1161005b5780639c37cd7b146100c8578063b0e21e8a146100e6578063e4467f3514610104578063f2fde38b146101205761007d565b80633c453a6714610082578063715018a6146100a05780638da5cb5b146100aa575b600080fd5b61008a61013c565b6040516100979190610458565b60405180910390f35b6100a861014b565b005b6100b261015f565b6040516100bf9190610458565b60405180910390f35b6100d0610188565b6040516100dd9190610490565b60405180910390f35b6100ee61019c565b6040516100fb9190610490565b60405180910390f35b61011e600480360381019061011991906104dc565b6101b3565b005b61013a60048036038101906101359190610535565b61024a565b005b600061014661015f565b905090565b6101536102cd565b61015d600061034b565b565b60008060009054906101000a900473ffffffffffffffffffffffffffffffffffffffff16905090565b600060149054906101000a900461ffff1681565b60008060149054906101000a900461ffff16905090565b6101bb6102cd565b600060149054906101000a900461ffff1661ffff168161ffff1603156102475760008060149054906101000a900461ffff16905081600060146101000a81548161ffff021916908361ffff1602179055507f5eceb83a41b09b5e263d7630d38aa237669c42bf1a589221313ea56e6d799e88828260405161023d929190610562565b60405180910390a1505b50565b6102526102cd565b600073ffffffffffffffffffffffffffffffffffffffff168173ffffffffffffffffffffffffffffffffffffffff16036102c1576040517f08c379a00000000000000000000000000000000000000000000000000000000081526004016102b89061060e565b60405180910390fd5b6102ca8161034b565b50565b6102d561040f565b73ffffffffffffffffffffffffffffffffffffffff166102f361015f565b73ffffffffffffffffffffffffffffffffffffffff1614610349576040517f08c379a00000000000000000000000000000000000000000000000000000000081526004016103409061067a565b60405180910390fd5b565b60008060009054906101000a900473ffffffffffffffffffffffffffffffffffffffff169050816000806101000a81548173ffffffffffffffffffffffffffffffffffffffff021916908373ffffffffffffffffffffffffffffffffffffffff1602179055508173ffffffffffffffffffffffffffffffffffffffff168173ffffffffffffffffffffffffffffffffffffffff167f8be0079c531659141344cd1fd0a4f28419497f9722a3daafe3b4186f6b6457e060405160405180910390a35050565b600033905090565b600073ffffffffffffffffffffffffffffffffffffffff82169050919050565b600061044282610417565b9050919050565b61045281610437565b82525050565b600060208201905061046d6000830184610449565b92915050565b600061ffff82169050919050565b61048a81610473565b82525050565b60006020820190506104a56000830184610481565b92915050565b600080fd5b6104b981610473565b81146104c457600080fd5b50565b6000813590506104d6816104b0565b92915050565b6000602082840312156104f2576104f16104ab565b5b6000610500848285016104c7565b91505092915050565b61051281610437565b811461051d57600080fd5b50565b60008135905061052f81610509565b92915050565b60006020828403121561054b5761054a6104ab565b5b600061055984828501610520565b91505092915050565b60006040820190506105776000830185610481565b6105846020830184610481565b9392505050565b600082825260208201905092915050565b7f4f776e61626c653a206e6577206f776e657220697320746865207a65726f206160008201527f6464726573730000000000000000000000000000000000000000000000000000602082015250565b60006105f860268361058b565b91506106038261059c565b604082019050919050565b60006020820190508181036000830152610627816105eb565b9050919050565b7f4f776e61626c653a2063616c6c6572206973206e6f7420746865206f776e6572600082015250565b600061066460208361058b565b915061066f8261062e565b602082019050919050565b6000602082019050818103600083015261069381610657565b905091905056fea26469706673582212205381fcaedff5c885091d102c876540143d077e32f128d227e60960e0602e7db664736f6c63430008110033",
  "immutableReferences": {},
  "source": "pragma solidity >=0.8.0 <0.9.0;\n// SPDX-License-Identifier: MIT\n\nimport \"@openzeppelin/contracts/access/Ownable.sol\";\n\ncontract dreamBidFee is Ownable {\n    uint16 public _dreamBiddingFee;\n\n    event FeeSet(uint16 newFee, uint16 oldFee);\n\n    function protocolFee() public view virtual returns (uint16) {\n        return _dreamBiddingFee;\n    }\n\n    function getProtocolOwnerAddress() public view virtual returns (address) {\n        return owner();\n    }\n\n    // Set Protocol Fee in percent\n    function setProtocolFee(uint16 newFee) public virtual onlyOwner {\n        if (newFee == _dreamBiddingFee) return;\n\n        uint16 oldFee = _dreamBiddingFee;\n        _dreamBiddingFee = newFee;\n        emit FeeSet(newFee, oldFee);\n    }\n}\n",
  "sourcePath": "/media/dell/17f09f70-0626-4927-a787-2813ab7ed2c0/dell/Dream Bid/Dream-Bid/contracts/dreamBidFee.sol",
  "compiler": {
    "name": "solc",
    "version": "0.8.17+commit.8df45f5f.Emscripten.clang"
  },
  "schemaVersion": "3.4.10",
  "updatedAt": "2023-05-04T04:58:40.669Z",
  "networkType": "ethereum",
  "devdoc": {
    "kind": "dev",
    "methods": {
      "owner()": {
        "details": "Returns the address of the current owner."
      },
      "renounceOwnership()": {
        "details": "Leaves the contract without owner. It will not be possible to call `onlyOwner` functions anymore. Can only be called by the current owner. NOTE: Renouncing ownership will leave the contract without an owner, thereby removing any functionality that is only available to the owner."
      },
      "transferOwnership(address)": {
        "details": "Transfers ownership of the contract to a new account (`newOwner`). Can only be called by the current owner."
      }
    },
    "version": 1
  },
  "userdoc": {
    "kind": "user",
    "methods": {},
    "version": 1
  }
}