{
  "contractName": "gameRegistry",
  "abi": [
    {
      "inputs": [
        {
          "internalType": "address",
          "name": "_dreamBidFeeAddress",
          "type": "address"
        }
      ],
      "stateMutability": "nonpayable",
      "type": "constructor"
    },
    {
      "anonymous": false,
      "inputs": [
        {
          "indexed": false,
          "internalType": "uint256",
          "name": "gameId",
          "type": "uint256"
        },
        {
          "indexed": false,
          "internalType": "address",
          "name": "BidderAddress",
          "type": "address"
        }
      ],
      "name": "BidderAdded",
      "type": "event"
    },
    {
      "anonymous": false,
      "inputs": [
        {
          "indexed": false,
          "internalType": "uint256",
          "name": "gameId",
          "type": "uint256"
        },
        {
          "indexed": false,
          "internalType": "address",
          "name": "BidderAddress",
          "type": "address"
        }
      ],
      "name": "BidderRemoved",
      "type": "event"
    },
    {
      "anonymous": false,
      "inputs": [
        {
          "indexed": true,
          "internalType": "uint256",
          "name": "gameId",
          "type": "uint256"
        },
        {
          "components": [
            {
              "internalType": "string",
              "name": "competitor",
              "type": "string"
            }
          ],
          "indexed": false,
          "internalType": "struct LibGame.Competitor[]",
          "name": "Competitors",
          "type": "tuple[]"
        }
      ],
      "name": "CompetitorsSet",
      "type": "event"
    },
    {
      "anonymous": false,
      "inputs": [
        {
          "indexed": false,
          "internalType": "uint256",
          "name": "gameId",
          "type": "uint256"
        },
        {
          "indexed": false,
          "internalType": "uint8[]",
          "name": "Winners",
          "type": "uint8[]"
        }
      ],
      "name": "DecidedWinners",
      "type": "event"
    },
    {
      "anonymous": false,
      "inputs": [
        {
          "indexed": false,
          "internalType": "address",
          "name": "Currency",
          "type": "address"
        },
        {
          "indexed": false,
          "internalType": "uint256",
          "name": "gameId",
          "type": "uint256"
        },
        {
          "indexed": false,
          "internalType": "uint256",
          "name": "minPrice",
          "type": "uint256"
        },
        {
          "indexed": false,
          "internalType": "uint256",
          "name": "bidStartTime",
          "type": "uint256"
        },
        {
          "indexed": false,
          "internalType": "uint256",
          "name": "bidEndTime",
          "type": "uint256"
        }
      ],
      "name": "gameListedForFixPrice",
      "type": "event"
    },
    {
      "inputs": [
        {
          "internalType": "uint256",
          "name": "",
          "type": "uint256"
        },
        {
          "internalType": "uint256",
          "name": "",
          "type": "uint256"
        }
      ],
      "name": "Bidders",
      "outputs": [
        {
          "internalType": "address",
          "name": "",
          "type": "address"
        }
      ],
      "stateMutability": "view",
      "type": "function",
      "constant": true
    },
    {
      "inputs": [
        {
          "internalType": "uint256",
          "name": "",
          "type": "uint256"
        },
        {
          "internalType": "uint256",
          "name": "",
          "type": "uint256"
        }
      ],
      "name": "Competitors",
      "outputs": [
        {
          "internalType": "string",
          "name": "competitor",
          "type": "string"
        }
      ],
      "stateMutability": "view",
      "type": "function",
      "constant": true
    },
    {
      "inputs": [],
      "name": "CompetitorsLimit",
      "outputs": [
        {
          "internalType": "uint8",
          "name": "",
          "type": "uint8"
        }
      ],
      "stateMutability": "view",
      "type": "function",
      "constant": true
    },
    {
      "inputs": [
        {
          "internalType": "uint256",
          "name": "",
          "type": "uint256"
        },
        {
          "internalType": "uint256",
          "name": "",
          "type": "uint256"
        }
      ],
      "name": "Winners",
      "outputs": [
        {
          "internalType": "uint8",
          "name": "",
          "type": "uint8"
        }
      ],
      "stateMutability": "view",
      "type": "function",
      "constant": true
    },
    {
      "inputs": [
        {
          "internalType": "uint256",
          "name": "",
          "type": "uint256"
        },
        {
          "internalType": "address",
          "name": "",
          "type": "address"
        }
      ],
      "name": "bidderAddressIndex",
      "outputs": [
        {
          "internalType": "uint256",
          "name": "",
          "type": "uint256"
        }
      ],
      "stateMutability": "view",
      "type": "function",
      "constant": true
    },
    {
      "inputs": [],
      "name": "dreamBidFeeAddress",
      "outputs": [
        {
          "internalType": "address",
          "name": "",
          "type": "address"
        }
      ],
      "stateMutability": "view",
      "type": "function",
      "constant": true
    },
    {
      "inputs": [],
      "name": "gameId",
      "outputs": [
        {
          "internalType": "uint256",
          "name": "",
          "type": "uint256"
        }
      ],
      "stateMutability": "view",
      "type": "function",
      "constant": true
    },
    {
      "inputs": [
        {
          "internalType": "uint256",
          "name": "",
          "type": "uint256"
        }
      ],
      "name": "gamesDetail",
      "outputs": [
        {
          "internalType": "address",
          "name": "currency",
          "type": "address"
        },
        {
          "internalType": "address",
          "name": "gameOwner",
          "type": "address"
        },
        {
          "internalType": "uint256",
          "name": "gameCreationTime",
          "type": "uint256"
        },
        {
          "internalType": "uint256",
          "name": "price",
          "type": "uint256"
        },
        {
          "internalType": "bool",
          "name": "addBidders",
          "type": "bool"
        },
        {
          "internalType": "uint256",
          "name": "bidStartTime",
          "type": "uint256"
        },
        {
          "internalType": "uint256",
          "name": "bidEndTime",
          "type": "uint256"
        },
        {
          "internalType": "bool",
          "name": "winnerDecided",
          "type": "bool"
        },
        {
          "internalType": "enum gameStorage.gameState",
          "name": "state",
          "type": "uint8"
        }
      ],
      "stateMutability": "view",
      "type": "function",
      "constant": true
    },
    {
      "inputs": [
        {
          "internalType": "address",
          "name": "_currency",
          "type": "address"
        },
        {
          "internalType": "uint256",
          "name": "_minPrice",
          "type": "uint256"
        },
        {
          "internalType": "uint256",
          "name": "_bidStartTime",
          "type": "uint256"
        },
        {
          "internalType": "uint256",
          "name": "_bidEndTime",
          "type": "uint256"
        },
        {
          "internalType": "bool",
          "name": "_addBidders",
          "type": "bool"
        },
        {
          "internalType": "uint8",
          "name": "_totleCompetitors",
          "type": "uint8"
        },
        {
          "components": [
            {
              "internalType": "string",
              "name": "competitor",
              "type": "string"
            }
          ],
          "internalType": "struct LibGame.Competitor[]",
          "name": "competitors",
          "type": "tuple[]"
        }
      ],
      "name": "listGame",
      "outputs": [],
      "stateMutability": "nonpayable",
      "type": "function"
    },
    {
      "inputs": [
        {
          "internalType": "uint8",
          "name": "_competitorsLimit",
          "type": "uint8"
        }
      ],
      "name": "setCompetitorsLimit",
      "outputs": [],
      "stateMutability": "nonpayable",
      "type": "function"
    },
    {
      "inputs": [],
      "name": "getCompetitorsLimit",
      "outputs": [
        {
          "internalType": "uint8",
          "name": "",
          "type": "uint8"
        }
      ],
      "stateMutability": "view",
      "type": "function",
      "constant": true
    },
    {
      "inputs": [
        {
          "internalType": "uint256",
          "name": "_gameId",
          "type": "uint256"
        }
      ],
      "name": "getGamedetail",
      "outputs": [
        {
          "components": [
            {
              "internalType": "address",
              "name": "currency",
              "type": "address"
            },
            {
              "internalType": "address",
              "name": "gameOwner",
              "type": "address"
            },
            {
              "internalType": "uint256",
              "name": "gameCreationTime",
              "type": "uint256"
            },
            {
              "internalType": "uint256",
              "name": "price",
              "type": "uint256"
            },
            {
              "internalType": "bool",
              "name": "addBidders",
              "type": "bool"
            },
            {
              "internalType": "uint256",
              "name": "bidStartTime",
              "type": "uint256"
            },
            {
              "internalType": "uint256",
              "name": "bidEndTime",
              "type": "uint256"
            },
            {
              "internalType": "bool",
              "name": "winnerDecided",
              "type": "bool"
            },
            {
              "internalType": "enum gameStorage.gameState",
              "name": "state",
              "type": "uint8"
            }
          ],
          "internalType": "struct gameStorage.gameDetail",
          "name": "",
          "type": "tuple"
        }
      ],
      "stateMutability": "view",
      "type": "function",
      "constant": true
    },
    {
      "inputs": [
        {
          "internalType": "uint256",
          "name": "_gameId",
          "type": "uint256"
        }
      ],
      "name": "getCompetitors",
      "outputs": [
        {
          "components": [
            {
              "internalType": "string",
              "name": "competitor",
              "type": "string"
            }
          ],
          "internalType": "struct LibGame.Competitor[]",
          "name": "",
          "type": "tuple[]"
        }
      ],
      "stateMutability": "view",
      "type": "function",
      "constant": true
    },
    {
      "inputs": [
        {
          "internalType": "uint256",
          "name": "_gameId",
          "type": "uint256"
        },
        {
          "internalType": "uint8",
          "name": "_competitorIndex",
          "type": "uint8"
        }
      ],
      "name": "getCompetitorsById",
      "outputs": [
        {
          "components": [
            {
              "internalType": "string",
              "name": "competitor",
              "type": "string"
            }
          ],
          "internalType": "struct LibGame.Competitor",
          "name": "",
          "type": "tuple"
        }
      ],
      "stateMutability": "view",
      "type": "function",
      "constant": true
    },
    {
      "inputs": [
        {
          "internalType": "uint256",
          "name": "_gameId",
          "type": "uint256"
        },
        {
          "internalType": "address",
          "name": "_bidderAddress",
          "type": "address"
        }
      ],
      "name": "addBidders",
      "outputs": [],
      "stateMutability": "nonpayable",
      "type": "function"
    },
    {
      "inputs": [
        {
          "internalType": "uint256",
          "name": "_gameId",
          "type": "uint256"
        },
        {
          "internalType": "address",
          "name": "_bidderAddress",
          "type": "address"
        }
      ],
      "name": "removeBidder",
      "outputs": [],
      "stateMutability": "nonpayable",
      "type": "function"
    },
    {
      "inputs": [
        {
          "internalType": "uint256",
          "name": "_gameId",
          "type": "uint256"
        },
        {
          "internalType": "address",
          "name": "_bidderAddress",
          "type": "address"
        }
      ],
      "name": "bidderVerification",
      "outputs": [
        {
          "internalType": "bool",
          "name": "isVerified",
          "type": "bool"
        }
      ],
      "stateMutability": "view",
      "type": "function",
      "constant": true
    },
    {
      "inputs": [
        {
          "internalType": "uint256",
          "name": "_gameId",
          "type": "uint256"
        },
        {
          "internalType": "uint8[]",
          "name": "winners",
          "type": "uint8[]"
        }
      ],
      "name": "decideWinner",
      "outputs": [],
      "stateMutability": "nonpayable",
      "type": "function"
    },
    {
      "inputs": [
        {
          "internalType": "uint256",
          "name": "_gameId",
          "type": "uint256"
        }
      ],
      "name": "getWinners",
      "outputs": [
        {
          "internalType": "uint8[]",
          "name": "",
          "type": "uint8[]"
        }
      ],
      "stateMutability": "view",
      "type": "function",
      "constant": true
    },
    {
      "inputs": [
        {
          "internalType": "uint256",
          "name": "_gameId",
          "type": "uint256"
        }
      ],
      "name": "getWinnersLength",
      "outputs": [
        {
          "internalType": "uint256",
          "name": "",
          "type": "uint256"
        }
      ],
      "stateMutability": "view",
      "type": "function",
      "constant": true
    }
  ],
  "bytecode": "0x60806040523480156200001157600080fd5b5060405162003604380380620036048339818101604052810190620000379190620000f1565b600160068190555080600760006101000a81548173ffffffffffffffffffffffffffffffffffffffff021916908373ffffffffffffffffffffffffffffffffffffffff1602179055505062000123565b600080fd5b600073ffffffffffffffffffffffffffffffffffffffff82169050919050565b6000620000b9826200008c565b9050919050565b620000cb81620000ac565b8114620000d757600080fd5b50565b600081519050620000eb81620000c0565b92915050565b6000602082840312156200010a576200010962000087565b5b60006200011a84828501620000da565b91505092915050565b6134d180620001336000396000f3fe608060405234801561001057600080fd5b506004361061012c5760003560e01c8063805f39f0116100ad578063d7c81b5511610071578063d7c81b551461036f578063e7ab0c421461038d578063ec09376d146103bd578063eeb87c4f146103ed578063fee246ce1461041d5761012c565b8063805f39f0146102b957806386f1a371146102e9578063a3033a1814610319578063a957590d14610337578063b32291f5146103535761012c565b806352e9bb64116100f457806352e9bb64146101e55780635b60c989146102035780636b1426a4146102335780637387bd57146102635780637a227918146102815761012c565b806307597c1c1461013157806319a9a3091461016157806327bb65531461017d5780634aa57db3146101ad5780634cb6842e146101c9575b600080fd5b61014b60048036038101906101469190611f69565b61044d565b6040516101589190612039565b60405180910390f35b61017b600480360381019061017691906121dc565b61050c565b005b61019760048036038101906101929190612296565b610712565b6040516101a491906122f1565b60405180910390f35b6101c760048036038101906101c2919061230c565b6107f6565b005b6101e360048036038101906101de9190612296565b610922565b005b6101ed610c4e565b6040516101fa9190612348565b60405180910390f35b61021d60048036038101906102189190611f69565b610c74565b60405161022a9190612348565b60405180910390f35b61024d60048036038101906102489190612363565b610cc2565b60405161025a919061244e565b60405180910390f35b61026b610d53565b604051610278919061247f565b60405180910390f35b61029b60048036038101906102969190612363565b610d66565b6040516102b099989796959493929190612520565b60405180910390f35b6102d360048036038101906102ce9190612363565b610e1b565b6040516102e091906126a0565b60405180910390f35b61030360048036038101906102fe9190612363565b610f8e565b60405161031091906126bc565b60405180910390f35b610321610fae565b60405161032e919061247f565b60405180910390f35b610351600480360381019061034c9190612296565b610fc5565b005b61036d600480360381019061036891906128fb565b6112f1565b005b6103776115fd565b60405161038491906126bc565b60405180910390f35b6103a760048036038101906103a291906129b9565b611603565b6040516103b49190612a6d565b60405180910390f35b6103d760048036038101906103d29190612296565b6116e2565b6040516103e491906126bc565b60405180910390f35b61040760048036038101906104029190612363565b611707565b6040516104149190612b7b565b60405180910390f35b61043760048036038101906104329190611f69565b611807565b604051610444919061247f565b60405180910390f35b6004602052816000526040600020818154811061046957600080fd5b906000526020600020016000915091505080600001805461048990612bcc565b80601f01602080910402602001604051908101604052809291908181526020018280546104b590612bcc565b80156105025780601f106104d757610100808354040283529160200191610502565b820191906000526020600020905b8154815290600101906020018083116104e557829003601f168201915b5050505050905081565b600760009054906101000a900473ffffffffffffffffffffffffffffffffffffffff1673ffffffffffffffffffffffffffffffffffffffff16633c453a676040518163ffffffff1660e01b8152600401602060405180830381865afa158015610579573d6000803e3d6000fd5b505050506040513d601f19601f8201168201806040525081019061059d9190612c12565b73ffffffffffffffffffffffffffffffffffffffff163373ffffffffffffffffffffffffffffffffffffffff161461060a576040517f08c379a000000000000000000000000000000000000000000000000000000000815260040161060190612c8b565b60405180910390fd5b60005b81518160ff16101561069f5760086000848152602001908152602001600020828260ff168151811061064257610641612cab565b5b602002602001015190806001815401808255809150506001900390600052602060002090602091828204019190069091909190916101000a81548160ff021916908360ff160217905550808061069790612d09565b91505061060d565b50600060016000848152602001908152602001600020905060018160070160006101000a81548160ff0219169083151502179055507fb4d5fcfd5913aab9c1c7d9e87ec4e722aac5e17a9e247f5386cbee19993934b68383604051610705929190612d32565b60405180910390a1505050565b6000806003600085815260200190815260200160002060008473ffffffffffffffffffffffffffffffffffffffff1673ffffffffffffffffffffffffffffffffffffffff1681526020019081526020016000205490508273ffffffffffffffffffffffffffffffffffffffff166002600086815260200190815260200160002082815481106107a4576107a3612cab565b5b9060005260206000200160009054906101000a900473ffffffffffffffffffffffffffffffffffffffff1673ffffffffffffffffffffffffffffffffffffffff16036107ef57600191505b5092915050565b6107fe61184a565b600760009054906101000a900473ffffffffffffffffffffffffffffffffffffffff1673ffffffffffffffffffffffffffffffffffffffff16633c453a676040518163ffffffff1660e01b8152600401602060405180830381865afa15801561086b573d6000803e3d6000fd5b505050506040513d601f19601f8201168201806040525081019061088f9190612c12565b73ffffffffffffffffffffffffffffffffffffffff163373ffffffffffffffffffffffffffffffffffffffff16146108fc576040517f08c379a00000000000000000000000000000000000000000000000000000000081526004016108f390612c8b565b60405180910390fd5b80600760146101000a81548160ff021916908360ff16021790555061091f611899565b50565b61092a61184a565b600073ffffffffffffffffffffffffffffffffffffffff168173ffffffffffffffffffffffffffffffffffffffff1603610999576040517f08c379a000000000000000000000000000000000000000000000000000000000815260040161099090612dae565b60405180910390fd5b600060016000848152602001908152602001600020604051806101200160405290816000820160009054906101000a900473ffffffffffffffffffffffffffffffffffffffff1673ffffffffffffffffffffffffffffffffffffffff1673ffffffffffffffffffffffffffffffffffffffff1681526020016001820160009054906101000a900473ffffffffffffffffffffffffffffffffffffffff1673ffffffffffffffffffffffffffffffffffffffff1673ffffffffffffffffffffffffffffffffffffffff16815260200160028201548152602001600382015481526020016004820160009054906101000a900460ff1615151515815260200160058201548152602001600682015481526020016007820160009054906101000a900460ff161515151581526020016007820160019054906101000a900460ff166003811115610ae957610ae86124a9565b5b6003811115610afb57610afa6124a9565b5b8152505090503373ffffffffffffffffffffffffffffffffffffffff16816020015173ffffffffffffffffffffffffffffffffffffffff1614610b73576040517f08c379a0000000000000000000000000000000000000000000000000000000008152600401610b6a90612e1a565b60405180910390fd5b8060a00151421015610bba576040517f08c379a0000000000000000000000000000000000000000000000000000000008152600401610bb190612e86565b60405180910390fd5b8060800151610bfe576040517f08c379a0000000000000000000000000000000000000000000000000000000008152600401610bf590612ef2565b60405180910390fd5b610c0883836118a3565b7f4ddf4c0e94fa7c3fcf8474005bf8b72858bbc3afbeecaee663000ca4eeb2b9bd8383604051610c39929190612f12565b60405180910390a150610c4a611899565b5050565b600760009054906101000a900473ffffffffffffffffffffffffffffffffffffffff1681565b60026020528160005260406000208181548110610c9057600080fd5b906000526020600020016000915091509054906101000a900473ffffffffffffffffffffffffffffffffffffffff1681565b606060086000838152602001908152602001600020805480602002602001604051908101604052809291908181526020018280548015610d4757602002820191906000526020600020906000905b82829054906101000a900460ff1660ff1681526020019060010190602082600001049283019260010382029150808411610d105790505b50505050509050919050565b600760149054906101000a900460ff1681565b60016020528060005260406000206000915090508060000160009054906101000a900473ffffffffffffffffffffffffffffffffffffffff16908060010160009054906101000a900473ffffffffffffffffffffffffffffffffffffffff16908060020154908060030154908060040160009054906101000a900460ff16908060050154908060060154908060070160009054906101000a900460ff16908060070160019054906101000a900460ff16905089565b610e23611dd9565b60016000838152602001908152602001600020604051806101200160405290816000820160009054906101000a900473ffffffffffffffffffffffffffffffffffffffff1673ffffffffffffffffffffffffffffffffffffffff1673ffffffffffffffffffffffffffffffffffffffff1681526020016001820160009054906101000a900473ffffffffffffffffffffffffffffffffffffffff1673ffffffffffffffffffffffffffffffffffffffff1673ffffffffffffffffffffffffffffffffffffffff16815260200160028201548152602001600382015481526020016004820160009054906101000a900460ff1615151515815260200160058201548152602001600682015481526020016007820160009054906101000a900460ff161515151581526020016007820160019054906101000a900460ff166003811115610f7157610f706124a9565b5b6003811115610f8357610f826124a9565b5b815250509050919050565b600060086000838152602001908152602001600020805490509050919050565b6000600760149054906101000a900460ff16905090565b610fcd61184a565b600073ffffffffffffffffffffffffffffffffffffffff168173ffffffffffffffffffffffffffffffffffffffff160361103c576040517f08c379a000000000000000000000000000000000000000000000000000000000815260040161103390612dae565b60405180910390fd5b600060016000848152602001908152602001600020604051806101200160405290816000820160009054906101000a900473ffffffffffffffffffffffffffffffffffffffff1673ffffffffffffffffffffffffffffffffffffffff1673ffffffffffffffffffffffffffffffffffffffff1681526020016001820160009054906101000a900473ffffffffffffffffffffffffffffffffffffffff1673ffffffffffffffffffffffffffffffffffffffff1673ffffffffffffffffffffffffffffffffffffffff16815260200160028201548152602001600382015481526020016004820160009054906101000a900460ff1615151515815260200160058201548152602001600682015481526020016007820160009054906101000a900460ff161515151581526020016007820160019054906101000a900460ff16600381111561118c5761118b6124a9565b5b600381111561119e5761119d6124a9565b5b81525050905080608001516111e8576040517f08c379a00000000000000000000000000000000000000000000000000000000081526004016111df90612ef2565b60405180910390fd5b3373ffffffffffffffffffffffffffffffffffffffff16816020015173ffffffffffffffffffffffffffffffffffffffff161461125a576040517f08c379a000000000000000000000000000000000000000000000000000000000815260040161125190612e1a565b60405180910390fd5b8060a001514210156112a1576040517f08c379a000000000000000000000000000000000000000000000000000000000815260040161129890612e86565b60405180910390fd5b6112ab8383611b1d565b7f76fb0fc0d7b89616893265c9b8fdb13cd460e0aa69d51ce102e854d9afa0383583836040516112dc929190612f12565b60405180910390a1506112ed611899565b5050565b6112f961184a565b600760149054906101000a900460ff1660ff168260ff161115611351576040517f08c379a000000000000000000000000000000000000000000000000000000000815260040161134890612f87565b60405180910390fd5b80518260ff1614611397576040517f08c379a000000000000000000000000000000000000000000000000000000000815260040161138e90612ff3565b60405180910390fd5b600080600081546113a790613013565b919050819055905060006040518061012001604052808a73ffffffffffffffffffffffffffffffffffffffff1681526020013373ffffffffffffffffffffffffffffffffffffffff16815260200142815260200189815260200186151581526020018842611415919061305b565b81526020018742611426919061305b565b815260200160001515815260200160016003811115611448576114476124a9565b5b8152509050806001600084815260200190815260200160002060008201518160000160006101000a81548173ffffffffffffffffffffffffffffffffffffffff021916908373ffffffffffffffffffffffffffffffffffffffff16021790555060208201518160010160006101000a81548173ffffffffffffffffffffffffffffffffffffffff021916908373ffffffffffffffffffffffffffffffffffffffff160217905550604082015181600201556060820151816003015560808201518160040160006101000a81548160ff02191690831515021790555060a0820151816005015560c0820151816006015560e08201518160070160006101000a81548160ff0219169083151502179055506101008201518160070160016101000a81548160ff02191690836003811115611583576115826124a9565b5b02179055509050506115958284611c00565b7fb7b6dd5597de173873ffdeb37929f9c994cc6c671ff11a3de4989e4225b3e46589838a8a426115c5919061305b565b8a426115d1919061305b565b6040516115e295949392919061308f565b60405180910390a150506115f4611899565b50505050505050565b60005481565b61160b611e67565b600460008481526020019081526020016000208260ff168154811061163357611632612cab565b5b9060005260206000200160405180602001604052908160008201805461165890612bcc565b80601f016020809104026020016040519081016040528092919081815260200182805461168490612bcc565b80156116d15780601f106116a6576101008083540402835291602001916116d1565b820191906000526020600020905b8154815290600101906020018083116116b457829003601f168201915b505050505081525050905092915050565b6003602052816000526040600020602052806000526040600020600091509150505481565b606060046000838152602001908152602001600020805480602002602001604051908101604052809291908181526020016000905b828210156117fc5783829060005260206000200160405180602001604052908160008201805461176b90612bcc565b80601f016020809104026020016040519081016040528092919081815260200182805461179790612bcc565b80156117e45780601f106117b9576101008083540402835291602001916117e4565b820191906000526020600020905b8154815290600101906020018083116117c757829003601f168201915b5050505050815250508152602001906001019061173c565b505050509050919050565b6008602052816000526040600020818154811061182357600080fd5b9060005260206000209060209182820401919006915091509054906101000a900460ff1681565b60026006540361188f576040517f08c379a00000000000000000000000000000000000000000000000000000000081526004016118869061312e565b60405180910390fd5b6002600681905550565b6001600681905550565b6000600160026000858152602001908152602001600020805490506118c8919061314e565b905060006002600085815260200190815260200160002082815481106118f1576118f0612cab565b5b9060005260206000200160009054906101000a900473ffffffffffffffffffffffffffffffffffffffff1690508073ffffffffffffffffffffffffffffffffffffffff168373ffffffffffffffffffffffffffffffffffffffff1614611a6b5760006003600086815260200190815260200160002060008573ffffffffffffffffffffffffffffffffffffffff1673ffffffffffffffffffffffffffffffffffffffff168152602001908152602001600020549050816002600087815260200190815260200160002082815481106119cc576119cb612cab565b5b9060005260206000200160006101000a81548173ffffffffffffffffffffffffffffffffffffffff021916908373ffffffffffffffffffffffffffffffffffffffff160217905550806003600087815260200190815260200160002060008473ffffffffffffffffffffffffffffffffffffffff1673ffffffffffffffffffffffffffffffffffffffff16815260200190815260200160002081905550505b6003600085815260200190815260200160002060008473ffffffffffffffffffffffffffffffffffffffff1673ffffffffffffffffffffffffffffffffffffffff1681526020019081526020016000206000905560026000858152602001908152602001600020805480611ae257611ae1613182565b5b6001900381819060005260206000200160006101000a81549073ffffffffffffffffffffffffffffffffffffffff0219169055905550505050565b60026000838152602001908152602001600020805490506003600084815260200190815260200160002060008373ffffffffffffffffffffffffffffffffffffffff1673ffffffffffffffffffffffffffffffffffffffff1681526020019081526020016000208190555060026000838152602001908152602001600020819080600181540180825580915050600190039060005260206000200160009091909190916101000a81548173ffffffffffffffffffffffffffffffffffffffff021916908373ffffffffffffffffffffffffffffffffffffffff1602179055505050565b600460008381526020019081526020016000206000611c1f9190611e7a565b60005b81518160ff161015611d9c5760005b8160ff168160ff161015611d1a57828160ff1681518110611c5557611c54612cab565b5b6020026020010151604051602001611c6d9190612a6d565b60405160208183030381529060405280519060200120838360ff1681518110611c9957611c98612cab565b5b6020026020010151604051602001611cb19190612a6d565b6040516020818303038152906040528051906020012003611d07576040517f08c379a0000000000000000000000000000000000000000000000000000000008152600401611cfe906131fd565b60405180910390fd5b8080611d1290612d09565b915050611c31565b5060046000848152602001908152602001600020828260ff1681518110611d4457611d43612cab565b5b6020026020010151908060018154018082558091505060019003906000526020600020016000909190919091506000820151816000019081611d8691906133c9565b5050508080611d9490612d09565b915050611c22565b50817fd041b2f4f02f46a5dd7571864f823c0bc172233f60a4a6eee67a425bc308e81482604051611dcd9190612b7b565b60405180910390a25050565b604051806101200160405280600073ffffffffffffffffffffffffffffffffffffffff168152602001600073ffffffffffffffffffffffffffffffffffffffff1681526020016000815260200160008152602001600015158152602001600081526020016000815260200160001515815260200160006003811115611e6157611e606124a9565b5b81525090565b6040518060200160405280606081525090565b5080546000825590600052602060002090810190611e989190611e9b565b50565b5b80821115611ebe5760008082016000611eb59190611ec2565b50600101611e9c565b5090565b508054611ece90612bcc565b6000825580601f10611ee05750611eff565b601f016020900490600052602060002090810190611efe9190611f02565b5b50565b5b80821115611f1b576000816000905550600101611f03565b5090565b6000604051905090565b600080fd5b600080fd5b6000819050919050565b611f4681611f33565b8114611f5157600080fd5b50565b600081359050611f6381611f3d565b92915050565b60008060408385031215611f8057611f7f611f29565b5b6000611f8e85828601611f54565b9250506020611f9f85828601611f54565b9150509250929050565b600081519050919050565b600082825260208201905092915050565b60005b83811015611fe3578082015181840152602081019050611fc8565b60008484015250505050565b6000601f19601f8301169050919050565b600061200b82611fa9565b6120158185611fb4565b9350612025818560208601611fc5565b61202e81611fef565b840191505092915050565b600060208201905081810360008301526120538184612000565b905092915050565b600080fd5b7f4e487b7100000000000000000000000000000000000000000000000000000000600052604160045260246000fd5b61209882611fef565b810181811067ffffffffffffffff821117156120b7576120b6612060565b5b80604052505050565b60006120ca611f1f565b90506120d6828261208f565b919050565b600067ffffffffffffffff8211156120f6576120f5612060565b5b602082029050602081019050919050565b600080fd5b600060ff82169050919050565b6121228161210c565b811461212d57600080fd5b50565b60008135905061213f81612119565b92915050565b6000612158612153846120db565b6120c0565b9050808382526020820190506020840283018581111561217b5761217a612107565b5b835b818110156121a457806121908882612130565b84526020840193505060208101905061217d565b5050509392505050565b600082601f8301126121c3576121c261205b565b5b81356121d3848260208601612145565b91505092915050565b600080604083850312156121f3576121f2611f29565b5b600061220185828601611f54565b925050602083013567ffffffffffffffff81111561222257612221611f2e565b5b61222e858286016121ae565b9150509250929050565b600073ffffffffffffffffffffffffffffffffffffffff82169050919050565b600061226382612238565b9050919050565b61227381612258565b811461227e57600080fd5b50565b6000813590506122908161226a565b92915050565b600080604083850312156122ad576122ac611f29565b5b60006122bb85828601611f54565b92505060206122cc85828601612281565b9150509250929050565b60008115159050919050565b6122eb816122d6565b82525050565b600060208201905061230660008301846122e2565b92915050565b60006020828403121561232257612321611f29565b5b600061233084828501612130565b91505092915050565b61234281612258565b82525050565b600060208201905061235d6000830184612339565b92915050565b60006020828403121561237957612378611f29565b5b600061238784828501611f54565b91505092915050565b600081519050919050565b600082825260208201905092915050565b6000819050602082019050919050565b6123c58161210c565b82525050565b60006123d783836123bc565b60208301905092915050565b6000602082019050919050565b60006123fb82612390565b612405818561239b565b9350612410836123ac565b8060005b8381101561244157815161242888826123cb565b9750612433836123e3565b925050600181019050612414565b5085935050505092915050565b6000602082019050818103600083015261246881846123f0565b905092915050565b6124798161210c565b82525050565b60006020820190506124946000830184612470565b92915050565b6124a381611f33565b82525050565b7f4e487b7100000000000000000000000000000000000000000000000000000000600052602160045260246000fd5b600481106124e9576124e86124a9565b5b50565b60008190506124fa826124d8565b919050565b600061250a826124ec565b9050919050565b61251a816124ff565b82525050565b600061012082019050612536600083018c612339565b612543602083018b612339565b612550604083018a61249a565b61255d606083018961249a565b61256a60808301886122e2565b61257760a083018761249a565b61258460c083018661249a565b61259160e08301856122e2565b61259f610100830184612511565b9a9950505050505050505050565b6125b681612258565b82525050565b6125c581611f33565b82525050565b6125d4816122d6565b82525050565b6125e3816124ff565b82525050565b6101208201600082015161260060008501826125ad565b50602082015161261360208501826125ad565b50604082015161262660408501826125bc565b50606082015161263960608501826125bc565b50608082015161264c60808501826125cb565b5060a082015161265f60a08501826125bc565b5060c082015161267260c08501826125bc565b5060e082015161268560e08501826125cb565b5061010082015161269a6101008501826125da565b50505050565b6000610120820190506126b660008301846125e9565b92915050565b60006020820190506126d1600083018461249a565b92915050565b6126e0816122d6565b81146126eb57600080fd5b50565b6000813590506126fd816126d7565b92915050565b600067ffffffffffffffff82111561271e5761271d612060565b5b602082029050602081019050919050565b600080fd5b600080fd5b600080fd5b600067ffffffffffffffff82111561275957612758612060565b5b61276282611fef565b9050602081019050919050565b82818337600083830152505050565b600061279161278c8461273e565b6120c0565b9050828152602081018484840111156127ad576127ac612739565b5b6127b884828561276f565b509392505050565b600082601f8301126127d5576127d461205b565b5b81356127e584826020860161277e565b91505092915050565b6000602082840312156128045761280361272f565b5b61280e60206120c0565b9050600082013567ffffffffffffffff81111561282e5761282d612734565b5b61283a848285016127c0565b60008301525092915050565b600061285961285484612703565b6120c0565b9050808382526020820190506020840283018581111561287c5761287b612107565b5b835b818110156128c357803567ffffffffffffffff8111156128a1576128a061205b565b5b8086016128ae89826127ee565b8552602085019450505060208101905061287e565b5050509392505050565b600082601f8301126128e2576128e161205b565b5b81356128f2848260208601612846565b91505092915050565b600080600080600080600060e0888a03121561291a57612919611f29565b5b60006129288a828b01612281565b97505060206129398a828b01611f54565b965050604061294a8a828b01611f54565b955050606061295b8a828b01611f54565b945050608061296c8a828b016126ee565b93505060a061297d8a828b01612130565b92505060c088013567ffffffffffffffff81111561299e5761299d611f2e565b5b6129aa8a828b016128cd565b91505092959891949750929550565b600080604083850312156129d0576129cf611f29565b5b60006129de85828601611f54565b92505060206129ef85828601612130565b9150509250929050565b600082825260208201905092915050565b6000612a1582611fa9565b612a1f81856129f9565b9350612a2f818560208601611fc5565b612a3881611fef565b840191505092915050565b60006020830160008301518482036000860152612a608282612a0a565b9150508091505092915050565b60006020820190508181036000830152612a878184612a43565b905092915050565b600081519050919050565b600082825260208201905092915050565b6000819050602082019050919050565b60006020830160008301518482036000860152612ad88282612a0a565b9150508091505092915050565b6000612af18383612abb565b905092915050565b6000602082019050919050565b6000612b1182612a8f565b612b1b8185612a9a565b935083602082028501612b2d85612aab565b8060005b85811015612b695784840389528151612b4a8582612ae5565b9450612b5583612af9565b925060208a01995050600181019050612b31565b50829750879550505050505092915050565b60006020820190508181036000830152612b958184612b06565b905092915050565b7f4e487b7100000000000000000000000000000000000000000000000000000000600052602260045260246000fd5b60006002820490506001821680612be457607f821691505b602082108103612bf757612bf6612b9d565b5b50919050565b600081519050612c0c8161226a565b92915050565b600060208284031215612c2857612c27611f29565b5b6000612c3684828501612bfd565b91505092915050565b7f596f7520617265206e6f74207468652050726f746f636f6c204f776e65720000600082015250565b6000612c75601e83611fb4565b9150612c8082612c3f565b602082019050919050565b60006020820190508181036000830152612ca481612c68565b9050919050565b7f4e487b7100000000000000000000000000000000000000000000000000000000600052603260045260246000fd5b7f4e487b7100000000000000000000000000000000000000000000000000000000600052601160045260246000fd5b6000612d148261210c565b915060ff8203612d2757612d26612cda565b5b600182019050919050565b6000604082019050612d47600083018561249a565b8181036020830152612d5981846123f0565b90509392505050565b7f30206164647265737320676976656e0000000000000000000000000000000000600082015250565b6000612d98600f83611fb4565b9150612da382612d62565b602082019050919050565b60006020820190508181036000830152612dc781612d8b565b9050919050565b7f596f7520617265206e6f74206f776e6572000000000000000000000000000000600082015250565b6000612e04601183611fb4565b9150612e0f82612dce565b602082019050919050565b60006020820190508181036000830152612e3381612df7565b9050919050565b7f47616d6520686173206e6f74206265656e207374617274656400000000000000600082015250565b6000612e70601983611fb4565b9150612e7b82612e3a565b602082019050919050565b60006020820190508181036000830152612e9f81612e63565b9050919050565b7f596f752063616e27742061646420426964646572000000000000000000000000600082015250565b6000612edc601483611fb4565b9150612ee782612ea6565b602082019050919050565b60006020820190508181036000830152612f0b81612ecf565b9050919050565b6000604082019050612f27600083018561249a565b612f346020830184612339565b9392505050565b7f436f6d70657469746f7273203e20436f6d70657469746f72734c696d69740000600082015250565b6000612f71601e83611fb4565b9150612f7c82612f3b565b602082019050919050565b60006020820190508181036000830152612fa081612f64565b9050919050565b7f546f74616c20436f6d70657469746f7273000000000000000000000000000000600082015250565b6000612fdd601183611fb4565b9150612fe882612fa7565b602082019050919050565b6000602082019050818103600083015261300c81612fd0565b9050919050565b600061301e82611f33565b91507fffffffffffffffffffffffffffffffffffffffffffffffffffffffffffffffff82036130505761304f612cda565b5b600182019050919050565b600061306682611f33565b915061307183611f33565b925082820190508082111561308957613088612cda565b5b92915050565b600060a0820190506130a46000830188612339565b6130b1602083018761249a565b6130be604083018661249a565b6130cb606083018561249a565b6130d8608083018461249a565b9695505050505050565b7f5265656e7472616e637947756172643a207265656e7472616e742063616c6c00600082015250565b6000613118601f83611fb4565b9150613123826130e2565b602082019050919050565b600060208201905081810360008301526131478161310b565b9050919050565b600061315982611f33565b915061316483611f33565b925082820390508181111561317c5761317b612cda565b5b92915050565b7f4e487b7100000000000000000000000000000000000000000000000000000000600052603160045260246000fd5b7f53616d6520636f6d70657469746f72206e616d65204e6f7420416c6c6f776564600082015250565b60006131e7602083611fb4565b91506131f2826131b1565b602082019050919050565b60006020820190508181036000830152613216816131da565b9050919050565b60008190508160005260206000209050919050565b60006020601f8301049050919050565b600082821b905092915050565b60006008830261327f7fffffffffffffffffffffffffffffffffffffffffffffffffffffffffffffffff82613242565b6132898683613242565b95508019841693508086168417925050509392505050565b6000819050919050565b60006132c66132c16132bc84611f33565b6132a1565b611f33565b9050919050565b6000819050919050565b6132e0836132ab565b6132f46132ec826132cd565b84845461324f565b825550505050565b600090565b6133096132fc565b6133148184846132d7565b505050565b5b818110156133385761332d600082613301565b60018101905061331a565b5050565b601f82111561337d5761334e8161321d565b61335784613232565b81016020851015613366578190505b61337a61337285613232565b830182613319565b50505b505050565b600082821c905092915050565b60006133a060001984600802613382565b1980831691505092915050565b60006133b9838361338f565b9150826002028217905092915050565b6133d282611fa9565b67ffffffffffffffff8111156133eb576133ea612060565b5b6133f58254612bcc565b61340082828561333c565b600060209050601f8311600181146134335760008415613421578287015190505b61342b85826133ad565b865550613493565b601f1984166134418661321d565b60005b8281101561346957848901518255600182019150602085019450602081019050613444565b868310156134865784890151613482601f89168261338f565b8355505b6001600288020188555050505b50505050505056fea2646970667358221220ed39f3c098678d813f5ca19af98be8c1fafcb16dd60fbd3c7ddaa668f9467e3a64736f6c63430008110033",
  "immutableReferences": {},
  "source": "// SPDX-License-Identifier: MIT\npragma solidity >=0.4.22 <0.9.0;\n\nimport \"@openzeppelin/contracts/utils/Counters.sol\";\nimport \"@openzeppelin/contracts/security/ReentrancyGuard.sol\";\n\nimport \"./gameStorage.sol\";\nimport \"./dreamBidFee.sol\";\nimport \"./Libraries/LibGame.sol\";\n\ncontract gameRegistry is gameStorage, ReentrancyGuard {\n    using Counters for Counters.Counter;\n\n    // 0x5B38Da6a701c568545dCfcB03FcB875f56beddC4\n    // 0xAb8483F64d9C6d1EcF9b849Ae677dD3315835cb2\n    // 0x4B20993Bc481177ec7E8f571ceCaE8A9e22C02db\n    // 0x78731D3Ca6b7E34aC0F824c42a7cC18A495cabaB\n\n    address public dreamBidFeeAddress;\n    uint8 public CompetitorsLimit;\n\n    // gameId => CompetitorIndex\n    mapping(uint256 => uint8[]) public Winners;\n\n    constructor(address _dreamBidFeeAddress) {\n        dreamBidFeeAddress = _dreamBidFeeAddress;\n    }\n\n    event gameListedForFixPrice(\n        address Currency,\n        uint256 gameId,\n        uint256 minPrice,\n        uint256 bidStartTime,\n        uint256 bidEndTime\n    );\n\n    event BidderAdded(uint256 gameId, address BidderAddress);\n    event BidderRemoved(uint256 gameId, address BidderAddress);\n    event CompetitorsSet(\n        uint256 indexed gameId,\n        LibGame.Competitor[] Competitors\n    );\n    event DecidedWinners(uint256 gameId, uint8[] Winners);\n\n    // error sameCompetitor(string, address);\n\n    modifier onlyGameOwner(uint256 _gameId) {\n        gameDetail storage game = gamesDetail[_gameId];\n        require(msg.sender == game.gameOwner, \"You are not the game owner\");\n        _;\n    }\n\n    function listGame(\n        address _currency,\n        uint256 _minPrice,\n        uint256 _bidStartTime,\n        uint256 _bidEndTime,\n        bool _addBidders,\n        uint8 _totleCompetitors,\n        LibGame.Competitor[] memory competitors\n    ) external nonReentrant {\n        require(\n            _totleCompetitors <= CompetitorsLimit,\n            \"Competitors > CompetitorsLimit\"\n        );\n        require(_totleCompetitors == competitors.length, \"Total Competitors\");\n        uint256 gameId_ = ++gameId;\n        gameDetail memory gameData = gameDetail(\n            _currency,\n            msg.sender,\n            block.timestamp,\n            _minPrice,\n            _addBidders,\n            block.timestamp + _bidStartTime,\n            block.timestamp + _bidEndTime,\n            false,\n            gameState.STARTED\n        );\n        gamesDetail[gameId_] = gameData;\n\n        _setCompetitorsByGameId(gameId_, competitors);\n\n        emit gameListedForFixPrice(\n            _currency,\n            gameId_,\n            _minPrice,\n            block.timestamp + _bidStartTime,\n            block.timestamp + _bidEndTime\n        );\n    }\n\n    function setCompetitorsLimit(uint8 _competitorsLimit) public nonReentrant {\n        require(\n            msg.sender ==\n                dreamBidFee(dreamBidFeeAddress).getProtocolOwnerAddress(),\n            \"You are not the Protocol Owner\"\n        );\n        CompetitorsLimit = _competitorsLimit;\n    }\n\n    function getCompetitorsLimit() public view returns(uint8){\n        return CompetitorsLimit;\n    }\n\n    function getGamedetail(uint256 _gameId)\n        external\n        view\n        returns (gameDetail memory)\n    {\n        return gamesDetail[_gameId];\n    }\n\n    // [[\"Hi\"],[\"Shrish\"],[\"Sonal\"]]\n    function _setCompetitorsByGameId(\n        uint256 _gameId,\n        LibGame.Competitor[] memory competitors\n    ) private {\n        delete Competitors[_gameId];\n        for (uint8 i = 0; i < competitors.length; i++) {\n            for (uint8 j = 0; j < i; j++) {\n                if (\n                    keccak256(abi.encode(competitors[i])) ==\n                    keccak256(abi.encode(competitors[j]))\n                ) {\n                    revert(\"Same competitor name Not Allowed\");\n                }\n            }\n            Competitors[_gameId].push(competitors[i]);\n        }\n        emit CompetitorsSet(_gameId, competitors);\n    }\n\n    function getCompetitors(uint256 _gameId)\n        external\n        view\n        returns (LibGame.Competitor[] memory)\n    {\n        return Competitors[_gameId];\n    }\n\n    function getCompetitorsById(uint256 _gameId, uint8 _competitorIndex)\n        external\n        view\n        returns (LibGame.Competitor memory)\n    {\n        return Competitors[_gameId][_competitorIndex];\n    }\n\n    function addBidders(uint256 _gameId, address _bidderAddress)\n        external\n        nonReentrant\n    {\n        require(_bidderAddress != address(0), \"0 address given\");\n        gameDetail memory game = gamesDetail[_gameId];\n        require(game.addBidders, \"You can't add Bidder\");\n        require(game.gameOwner == msg.sender, \"You are not owner\");\n        require(block.timestamp >= game.bidStartTime, \"Game has not been started\");\n        _addBidder(_gameId, _bidderAddress);\n        emit BidderAdded(_gameId, _bidderAddress);\n    }\n\n    function _addBidder(uint256 _gameId, address _bidderAddress) private {\n        bidderAddressIndex[_gameId][_bidderAddress] = Bidders[_gameId].length;\n        Bidders[_gameId].push(_bidderAddress);\n    }\n\n    function removeBidder(uint256 _gameId, address _bidderAddress)\n        external\n        nonReentrant\n    {\n        require(_bidderAddress != address(0), \"0 address given\");\n        gameDetail memory game = gamesDetail[_gameId];\n        require(game.gameOwner == msg.sender, \"You are not owner\");\n        require(block.timestamp >= game.bidStartTime, \"Game has not been started\");\n        require(game.addBidders, \"You can't add Bidder\");\n        _removeBidder(_gameId, _bidderAddress);\n        emit BidderRemoved(_gameId, _bidderAddress);\n    }\n\n    function _removeBidder(uint256 _gameId, address _bidderAddress) private {\n        uint256 lastBidderIndex = Bidders[_gameId].length - 1;\n        address lastBidderAddress = Bidders[_gameId][lastBidderIndex];\n        if (_bidderAddress != lastBidderAddress) {\n            uint256 bidderIndex = bidderAddressIndex[_gameId][_bidderAddress];\n            Bidders[_gameId][bidderIndex] = lastBidderAddress;\n            bidderAddressIndex[_gameId][lastBidderAddress] = bidderIndex;\n        }\n        delete bidderAddressIndex[_gameId][_bidderAddress];\n        Bidders[_gameId].pop();\n    }\n\n    function bidderVerification(uint256 _gameId, address _bidderAddress)\n        external\n        view\n        returns (bool isVerified)\n    {\n        uint256 Index = bidderAddressIndex[_gameId][_bidderAddress];\n        if (Bidders[_gameId][Index] == _bidderAddress) {\n            isVerified = true;\n        }\n    }\n\n    function decideWinner(uint256 _gameId, uint8[] memory winners) external {\n        require(\n            msg.sender ==\n                dreamBidFee(dreamBidFeeAddress).getProtocolOwnerAddress(),\n            \"You are not the Protocol Owner\"\n        );\n        for (uint8 i = 0; i < winners.length; i++) {\n            Winners[_gameId].push(winners[i]);\n        }\n        gameDetail storage game = gamesDetail[_gameId];\n        game.winnerDecided = true;\n        emit DecidedWinners(_gameId, winners);\n    }\n\n    function getWinners(uint256 _gameId)\n        external\n        view\n        returns (uint8[] memory)\n    {\n        return Winners[_gameId];\n    }\n\n\n    function getWinnersLength(uint256 _gameId)\n        external\n        view\n        returns (uint256)\n    {\n        return Winners[_gameId].length;\n    }\n}\n",
  "sourcePath": "/media/dell/17f09f70-0626-4927-a787-2813ab7ed2c0/dell/Dream Bid/Dream-Bid/contracts/gameRegistry.sol",
  "compiler": {
    "name": "solc",
    "version": "0.8.17+commit.8df45f5f.Emscripten.clang"
  },
  "schemaVersion": "3.4.10",
  "updatedAt": "2023-05-04T04:58:40.693Z",
  "networkType": "ethereum",
  "devdoc": {
    "kind": "dev",
    "methods": {},
    "version": 1
  },
  "userdoc": {
    "kind": "user",
    "methods": {},
    "version": 1
  }
}