{
  "contractName": "LibCalculations",
  "abi": [
    {
      "inputs": [
        {
          "internalType": "uint256",
          "name": "self",
          "type": "uint256"
        },
        {
          "internalType": "uint16",
          "name": "percentage",
          "type": "uint16"
        }
      ],
      "name": "percent",
      "outputs": [
        {
          "internalType": "uint256",
          "name": "",
          "type": "uint256"
        }
      ],
      "stateMutability": "pure",
      "type": "function",
      "constant": true
    },
    {
      "inputs": [
        {
          "internalType": "uint256",
          "name": "_losingCompetitorsAmount",
          "type": "uint256"
        },
        {
          "internalType": "uint256",
          "name": "_winningCompetitorsAmount",
          "type": "uint256"
        },
        {
          "internalType": "uint256",
          "name": "_userAmount",
          "type": "uint256"
        }
      ],
      "name": "calculateAmount",
      "outputs": [
        {
          "internalType": "uint256",
          "name": "",
          "type": "uint256"
        }
      ],
      "stateMutability": "pure",
      "type": "function",
      "constant": true
    }
  ],
  "bytecode": "0x6105bb610053600b82828239805160001a607314610046577f4e487b7100000000000000000000000000000000000000000000000000000000600052600060045260246000fd5b30600052607381538281f3fe73000000000000000000000000000000000000000030146080604052600436106100405760003560e01c80633fb34003146100455780637754723e14610075575b600080fd5b61005f600480360381019061005a91906101fc565b6100a5565b60405161006c919061024b565b60405180910390f35b61008f600480360381019061008a9190610266565b6100bf565b60405161009c919061024b565b60405180910390f35b60006100b7838361ffff16600261013b565b905092915050565b6000808211610103576040517f08c379a00000000000000000000000000000000000000000000000000000000081526004016100fa90610316565b60405180910390fd5b6000836101106002610165565b8461011b9190610365565b61012591906103d6565b905061013185826100a5565b9150509392505050565b600061014682610165565b83856101529190610365565b61015c91906103d6565b90509392505050565b600081600a610174919061053a565b60646101809190610365565b9050919050565b600080fd5b6000819050919050565b61019f8161018c565b81146101aa57600080fd5b50565b6000813590506101bc81610196565b92915050565b600061ffff82169050919050565b6101d9816101c2565b81146101e457600080fd5b50565b6000813590506101f6816101d0565b92915050565b6000806040838503121561021357610212610187565b5b6000610221858286016101ad565b9250506020610232858286016101e7565b9150509250929050565b6102458161018c565b82525050565b6000602082019050610260600083018461023c565b92915050565b60008060006060848603121561027f5761027e610187565b5b600061028d868287016101ad565b935050602061029e868287016101ad565b92505060406102af868287016101ad565b9150509250925092565b600082825260208201905092915050565b7f596f757220616d6f756e74206973203000000000000000000000000000000000600082015250565b60006103006010836102b9565b915061030b826102ca565b602082019050919050565b6000602082019050818103600083015261032f816102f3565b9050919050565b7f4e487b7100000000000000000000000000000000000000000000000000000000600052601160045260246000fd5b60006103708261018c565b915061037b8361018c565b92508282026103898161018c565b915082820484148315176103a05761039f610336565b5b5092915050565b7f4e487b7100000000000000000000000000000000000000000000000000000000600052601260045260246000fd5b60006103e18261018c565b91506103ec8361018c565b9250826103fc576103fb6103a7565b5b828204905092915050565b60008160011c9050919050565b6000808291508390505b600185111561045e5780860481111561043a57610439610336565b5b60018516156104495780820291505b808102905061045785610407565b945061041e565b94509492505050565b6000826104775760019050610533565b816104855760009050610533565b816001811461049b57600281146104a5576104d4565b6001915050610533565b60ff8411156104b7576104b6610336565b5b8360020a9150848211156104ce576104cd610336565b5b50610533565b5060208310610133831016604e8410600b84101617156105095782820a90508381111561050457610503610336565b5b610533565b6105168484846001610414565b9250905081840481111561052d5761052c610336565b5b81810290505b9392505050565b60006105458261018c565b91506105508361018c565b925061057d7fffffffffffffffffffffffffffffffffffffffffffffffffffffffffffffffff8484610467565b90509291505056fea26469706673582212208fb190a02101e8878fefb9c41512e60666913696f715aafb45b0d3f085bf0c6e64736f6c63430008110033",
  "immutableReferences": {},
  "source": "// SPDX-License-Identifier: MIT\npragma solidity >=0.4.22 <0.9.0;\n\nimport {SafeCast} from \"@openzeppelin/contracts/utils/math/SafeCast.sol\";\nimport \"@openzeppelin/contracts/utils/math/SafeCast.sol\";\nimport \"@openzeppelin/contracts/utils/math/SafeMath.sol\";\nimport \"@openzeppelin/contracts/utils/math/Math.sol\";\n\nlibrary LibCalculations {\n    function percentFactor(uint256 decimals) internal pure returns (uint256) {\n        return 100 * (10**decimals);\n    }\n\n    /**\n     * Returns a percentage value of a number.\n     self The number to get a percentage of.\n     percentage The percentage value to calculate with 2 decimal places (10000 = 100%).\n     */\n    function percent(uint256 self, uint16 percentage)\n        public\n        pure\n        returns (uint256)\n    {\n        return percent(self, percentage, 2);\n    }\n\n    /**\n     * Returns a percentage value of a number.\n     self The number to get a percentage of.\n     percentage The percentage value to calculate with.\n     decimals The number of decimals the percentage value is in.\n     */\n    function percent(\n        uint256 self,\n        uint256 percentage,\n        uint256 decimals\n    ) internal pure returns (uint256) {\n        return (self * percentage) / percentFactor(decimals);\n    }\n\n    function calculateAmount(\n        uint256 _losingCompetitorsAmount,\n        uint256 _winningCompetitorsAmount,\n        uint256 _userAmount\n    ) public pure returns (uint256) {\n        require(_userAmount > 0, \"Your amount is 0\");\n        uint256 percentage = (_userAmount * percentFactor(2)) / _winningCompetitorsAmount;\n        return percent(_losingCompetitorsAmount, uint16(percentage));\n    }\n}\n",
  "sourcePath": "/media/dell/17f09f70-0626-4927-a787-2813ab7ed2c0/dell/Dream Bid/Dream-Bid/contracts/Libraries/LibCalculations.sol",
  "compiler": {
    "name": "solc",
    "version": "0.8.17+commit.8df45f5f.Emscripten.clang"
  },
  "schemaVersion": "3.4.10",
  "updatedAt": "2023-05-04T04:58:40.710Z",
  "networkType": "ethereum",
  "devdoc": {
    "kind": "dev",
    "methods": {},
    "version": 1
  },
  "userdoc": {
    "kind": "user",
    "methods": {
      "percent(uint256,uint16)": {
        "notice": "Returns a percentage value of a number. self The number to get a percentage of. percentage The percentage value to calculate with 2 decimal places (10000 = 100%)."
      }
    },
    "version": 1
  }
}